{
	"contracts/ExampleMappingStruct.sol": {
		"MappingStructExample": {
			"abi": [
				{
					"inputs": [
						{
							"internalType": "address",
							"name": "",
							"type": "address"
						}
					],
					"name": "balances",
					"outputs": [
						{
							"internalType": "uint256",
							"name": "totalBalance",
							"type": "uint256"
						},
						{
							"internalType": "uint256",
							"name": "numDeposits",
							"type": "uint256"
						},
						{
							"internalType": "uint256",
							"name": "numWithdrawals",
							"type": "uint256"
						}
					],
					"stateMutability": "view",
					"type": "function"
				},
				{
					"inputs": [],
					"name": "depositMoney",
					"outputs": [],
					"stateMutability": "payable",
					"type": "function"
				},
				{
					"inputs": [
						{
							"internalType": "address",
							"name": "_from",
							"type": "address"
						},
						{
							"internalType": "uint256",
							"name": "_numDeposit",
							"type": "uint256"
						}
					],
					"name": "getDpositNum",
					"outputs": [
						{
							"components": [
								{
									"internalType": "uint256",
									"name": "amount",
									"type": "uint256"
								},
								{
									"internalType": "uint256",
									"name": "timestamp",
									"type": "uint256"
								}
							],
							"internalType": "struct MappingStructExample.Transaction",
							"name": "",
							"type": "tuple"
						}
					],
					"stateMutability": "view",
					"type": "function"
				},
				{
					"inputs": [
						{
							"internalType": "address",
							"name": "_from",
							"type": "address"
						},
						{
							"internalType": "uint256",
							"name": "_numwithdraw",
							"type": "uint256"
						}
					],
					"name": "getWithdrawalNum",
					"outputs": [
						{
							"components": [
								{
									"internalType": "uint256",
									"name": "amount",
									"type": "uint256"
								},
								{
									"internalType": "uint256",
									"name": "timestamp",
									"type": "uint256"
								}
							],
							"internalType": "struct MappingStructExample.Transaction",
							"name": "",
							"type": "tuple"
						}
					],
					"stateMutability": "view",
					"type": "function"
				},
				{
					"inputs": [
						{
							"internalType": "address payable",
							"name": "_to",
							"type": "address"
						},
						{
							"internalType": "uint256",
							"name": "_amount",
							"type": "uint256"
						}
					],
					"name": "withdrawMoney",
					"outputs": [],
					"stateMutability": "nonpayable",
					"type": "function"
				}
			],
			"devdoc": {
				"kind": "dev",
				"methods": {},
				"version": 1
			},
			"evm": {
				"assembly": "    /* \"contracts/ExampleMappingStruct.sol\":62:1525  contract MappingStructExample {... */\n  mstore(0x40, 0x80)\n  callvalue\n  dup1\n  iszero\n  tag_1\n  jumpi\n  0x00\n  dup1\n  revert\ntag_1:\n  pop\n  dataSize(sub_0)\n  dup1\n  dataOffset(sub_0)\n  0x00\n  codecopy\n  0x00\n  return\nstop\n\nsub_0: assembly {\n        /* \"contracts/ExampleMappingStruct.sol\":62:1525  contract MappingStructExample {... */\n      mstore(0x40, 0x80)\n      jumpi(tag_1, lt(calldatasize, 0x04))\n      shr(0xe0, calldataload(0x00))\n      dup1\n      0x16c05aa2\n      eq\n      tag_2\n      jumpi\n      dup1\n      0x27e235e3\n      eq\n      tag_3\n      jumpi\n      dup1\n      0xaafc89a2\n      eq\n      tag_4\n      jumpi\n      dup1\n      0xed48e9bc\n      eq\n      tag_5\n      jumpi\n      dup1\n      0xf274c897\n      eq\n      tag_6\n      jumpi\n    tag_1:\n      0x00\n      dup1\n      revert\n        /* \"contracts/ExampleMappingStruct.sol\":798:1121  function depositMoney()public payable  {... */\n    tag_2:\n      tag_7\n      tag_8\n      jump\t// in\n    tag_7:\n      stop\n        /* \"contracts/ExampleMappingStruct.sol\":401:444  mapping(address => Balance) public balances */\n    tag_3:\n      callvalue\n      dup1\n      iszero\n      tag_9\n      jumpi\n      0x00\n      dup1\n      revert\n    tag_9:\n      pop\n      tag_10\n      0x04\n      dup1\n      calldatasize\n      sub\n      dup2\n      add\n      swap1\n      tag_11\n      swap2\n      swap1\n      tag_12\n      jump\t// in\n    tag_11:\n      tag_13\n      jump\t// in\n    tag_10:\n      mload(0x40)\n      tag_14\n      swap4\n      swap3\n      swap2\n      swap1\n      tag_15\n      jump\t// in\n    tag_14:\n      mload(0x40)\n      dup1\n      swap2\n      sub\n      swap1\n      return\n        /* \"contracts/ExampleMappingStruct.sol\":453:611  function getDpositNum(address _from, uint _numDeposit) public view returns(Transaction memory) {... */\n    tag_4:\n      callvalue\n      dup1\n      iszero\n      tag_16\n      jumpi\n      0x00\n      dup1\n      revert\n    tag_16:\n      pop\n      tag_17\n      0x04\n      dup1\n      calldatasize\n      sub\n      dup2\n      add\n      swap1\n      tag_18\n      swap2\n      swap1\n      tag_19\n      jump\t// in\n    tag_18:\n      tag_20\n      jump\t// in\n    tag_17:\n      mload(0x40)\n      tag_21\n      swap2\n      swap1\n      tag_22\n      jump\t// in\n    tag_21:\n      mload(0x40)\n      dup1\n      swap2\n      sub\n      swap1\n      return\n        /* \"contracts/ExampleMappingStruct.sol\":619:786  function getWithdrawalNum(address _from, uint _numwithdraw) public view returns(Transaction memory) {... */\n    tag_5:\n      callvalue\n      dup1\n      iszero\n      tag_23\n      jumpi\n      0x00\n      dup1\n      revert\n    tag_23:\n      pop\n      tag_24\n      0x04\n      dup1\n      calldatasize\n      sub\n      dup2\n      add\n      swap1\n      tag_25\n      swap2\n      swap1\n      tag_19\n      jump\t// in\n    tag_25:\n      tag_26\n      jump\t// in\n    tag_24:\n      mload(0x40)\n      tag_27\n      swap2\n      swap1\n      tag_22\n      jump\t// in\n    tag_27:\n      mload(0x40)\n      dup1\n      swap2\n      sub\n      swap1\n      return\n        /* \"contracts/ExampleMappingStruct.sol\":1129:1520  function withdrawMoney(address payable _to, uint _amount) public   {... */\n    tag_6:\n      callvalue\n      dup1\n      iszero\n      tag_28\n      jumpi\n      0x00\n      dup1\n      revert\n    tag_28:\n      pop\n      tag_29\n      0x04\n      dup1\n      calldatasize\n      sub\n      dup2\n      add\n      swap1\n      tag_30\n      swap2\n      swap1\n      tag_31\n      jump\t// in\n    tag_30:\n      tag_32\n      jump\t// in\n    tag_29:\n      stop\n        /* \"contracts/ExampleMappingStruct.sol\":798:1121  function depositMoney()public payable  {... */\n    tag_8:\n        /* \"contracts/ExampleMappingStruct.sol\":885:894  msg.value */\n      callvalue\n        /* \"contracts/ExampleMappingStruct.sol\":848:856  balances */\n      0x00\n        /* \"contracts/ExampleMappingStruct.sol\":848:868  balances[msg.sender] */\n      dup1\n        /* \"contracts/ExampleMappingStruct.sol\":857:867  msg.sender */\n      caller\n        /* \"contracts/ExampleMappingStruct.sol\":848:868  balances[msg.sender] */\n      0xffffffffffffffffffffffffffffffffffffffff\n      and\n      0xffffffffffffffffffffffffffffffffffffffff\n      and\n      dup2\n      mstore\n      0x20\n      add\n      swap1\n      dup2\n      mstore\n      0x20\n      add\n      0x00\n      keccak256\n        /* \"contracts/ExampleMappingStruct.sol\":848:881  balances[msg.sender].totalBalance */\n      0x00\n      add\n      0x00\n        /* \"contracts/ExampleMappingStruct.sol\":848:894  balances[msg.sender].totalBalance += msg.value */\n      dup3\n      dup3\n      sload\n      tag_34\n      swap2\n      swap1\n      tag_35\n      jump\t// in\n    tag_34:\n      swap3\n      pop\n      pop\n      dup2\n      swap1\n      sstore\n      pop\n        /* \"contracts/ExampleMappingStruct.sol\":913:939  Transaction memory deposit */\n      0x00\n        /* \"contracts/ExampleMappingStruct.sol\":942:981  Transaction(msg.value, block.timestamp) */\n      mload(0x40)\n      dup1\n      0x40\n      add\n      0x40\n      mstore\n      dup1\n        /* \"contracts/ExampleMappingStruct.sol\":954:963  msg.value */\n      callvalue\n        /* \"contracts/ExampleMappingStruct.sol\":942:981  Transaction(msg.value, block.timestamp) */\n      dup2\n      mstore\n      0x20\n      add\n        /* \"contracts/ExampleMappingStruct.sol\":965:980  block.timestamp */\n      timestamp\n        /* \"contracts/ExampleMappingStruct.sol\":942:981  Transaction(msg.value, block.timestamp) */\n      dup2\n      mstore\n      pop\n        /* \"contracts/ExampleMappingStruct.sol\":913:981  Transaction memory deposit = Transaction(msg.value, block.timestamp) */\n      swap1\n      pop\n        /* \"contracts/ExampleMappingStruct.sol\":1059:1066  deposit */\n      dup1\n        /* \"contracts/ExampleMappingStruct.sol\":993:1001  balances */\n      0x00\n        /* \"contracts/ExampleMappingStruct.sol\":993:1013  balances[msg.sender] */\n      dup1\n        /* \"contracts/ExampleMappingStruct.sol\":1002:1012  msg.sender */\n      caller\n        /* \"contracts/ExampleMappingStruct.sol\":993:1013  balances[msg.sender] */\n      0xffffffffffffffffffffffffffffffffffffffff\n      and\n      0xffffffffffffffffffffffffffffffffffffffff\n      and\n      dup2\n      mstore\n      0x20\n      add\n      swap1\n      dup2\n      mstore\n      0x20\n      add\n      0x00\n      keccak256\n        /* \"contracts/ExampleMappingStruct.sol\":993:1022  balances[msg.sender].deposits */\n      0x02\n      add\n        /* \"contracts/ExampleMappingStruct.sol\":993:1056  balances[msg.sender].deposits[balances[msg.sender].numDeposits] */\n      0x00\n        /* \"contracts/ExampleMappingStruct.sol\":1023:1031  balances */\n      dup1\n        /* \"contracts/ExampleMappingStruct.sol\":1023:1043  balances[msg.sender] */\n      0x00\n        /* \"contracts/ExampleMappingStruct.sol\":1032:1042  msg.sender */\n      caller\n        /* \"contracts/ExampleMappingStruct.sol\":1023:1043  balances[msg.sender] */\n      0xffffffffffffffffffffffffffffffffffffffff\n      and\n      0xffffffffffffffffffffffffffffffffffffffff\n      and\n      dup2\n      mstore\n      0x20\n      add\n      swap1\n      dup2\n      mstore\n      0x20\n      add\n      0x00\n      keccak256\n        /* \"contracts/ExampleMappingStruct.sol\":1023:1055  balances[msg.sender].numDeposits */\n      0x01\n      add\n      sload\n        /* \"contracts/ExampleMappingStruct.sol\":993:1056  balances[msg.sender].deposits[balances[msg.sender].numDeposits] */\n      dup2\n      mstore\n      0x20\n      add\n      swap1\n      dup2\n      mstore\n      0x20\n      add\n      0x00\n      keccak256\n        /* \"contracts/ExampleMappingStruct.sol\":993:1066  balances[msg.sender].deposits[balances[msg.sender].numDeposits] = deposit */\n      0x00\n      dup3\n      add\n      mload\n      dup2\n      0x00\n      add\n      sstore\n      0x20\n      dup3\n      add\n      mload\n      dup2\n      0x01\n      add\n      sstore\n      swap1\n      pop\n      pop\n        /* \"contracts/ExampleMappingStruct.sol\":1078:1086  balances */\n      0x00\n        /* \"contracts/ExampleMappingStruct.sol\":1078:1098  balances[msg.sender] */\n      dup1\n        /* \"contracts/ExampleMappingStruct.sol\":1087:1097  msg.sender */\n      caller\n        /* \"contracts/ExampleMappingStruct.sol\":1078:1098  balances[msg.sender] */\n      0xffffffffffffffffffffffffffffffffffffffff\n      and\n      0xffffffffffffffffffffffffffffffffffffffff\n      and\n      dup2\n      mstore\n      0x20\n      add\n      swap1\n      dup2\n      mstore\n      0x20\n      add\n      0x00\n      keccak256\n        /* \"contracts/ExampleMappingStruct.sol\":1078:1110  balances[msg.sender].numDeposits */\n      0x01\n      add\n      0x00\n        /* \"contracts/ExampleMappingStruct.sol\":1078:1113  balances[msg.sender].numDeposits ++ */\n      dup2\n      sload\n      dup1\n      swap3\n      swap2\n      swap1\n      tag_36\n      swap1\n      tag_37\n      jump\t// in\n    tag_36:\n      swap2\n      swap1\n      pop\n      sstore\n      pop\n        /* \"contracts/ExampleMappingStruct.sol\":837:1121  {... */\n      pop\n        /* \"contracts/ExampleMappingStruct.sol\":798:1121  function depositMoney()public payable  {... */\n      jump\t// out\n        /* \"contracts/ExampleMappingStruct.sol\":401:444  mapping(address => Balance) public balances */\n    tag_13:\n      mstore(0x20, 0x00)\n      dup1\n      0x00\n      mstore\n      keccak256(0x00, 0x40)\n      0x00\n      swap2\n      pop\n      swap1\n      pop\n      dup1\n      0x00\n      add\n      sload\n      swap1\n      dup1\n      0x01\n      add\n      sload\n      swap1\n      dup1\n      0x03\n      add\n      sload\n      swap1\n      pop\n      dup4\n      jump\t// out\n        /* \"contracts/ExampleMappingStruct.sol\":453:611  function getDpositNum(address _from, uint _numDeposit) public view returns(Transaction memory) {... */\n    tag_20:\n        /* \"contracts/ExampleMappingStruct.sol\":528:546  Transaction memory */\n      tag_38\n      tag_39\n      jump\t// in\n    tag_38:\n        /* \"contracts/ExampleMappingStruct.sol\":566:574  balances */\n      0x00\n        /* \"contracts/ExampleMappingStruct.sol\":566:581  balances[_from] */\n      dup1\n        /* \"contracts/ExampleMappingStruct.sol\":575:580  _from */\n      dup5\n        /* \"contracts/ExampleMappingStruct.sol\":566:581  balances[_from] */\n      0xffffffffffffffffffffffffffffffffffffffff\n      and\n      0xffffffffffffffffffffffffffffffffffffffff\n      and\n      dup2\n      mstore\n      0x20\n      add\n      swap1\n      dup2\n      mstore\n      0x20\n      add\n      0x00\n      keccak256\n        /* \"contracts/ExampleMappingStruct.sol\":566:590  balances[_from].deposits */\n      0x02\n      add\n        /* \"contracts/ExampleMappingStruct.sol\":566:603  balances[_from].deposits[_numDeposit] */\n      0x00\n        /* \"contracts/ExampleMappingStruct.sol\":591:602  _numDeposit */\n      dup4\n        /* \"contracts/ExampleMappingStruct.sol\":566:603  balances[_from].deposits[_numDeposit] */\n      dup2\n      mstore\n      0x20\n      add\n      swap1\n      dup2\n      mstore\n      0x20\n      add\n      0x00\n      keccak256\n        /* \"contracts/ExampleMappingStruct.sol\":559:603  return balances[_from].deposits[_numDeposit] */\n      mload(0x40)\n      dup1\n      0x40\n      add\n      0x40\n      mstore\n      swap1\n      dup2\n      0x00\n      dup3\n      add\n      sload\n      dup2\n      mstore\n      0x20\n      add\n      0x01\n      dup3\n      add\n      sload\n      dup2\n      mstore\n      pop\n      pop\n      swap1\n      pop\n        /* \"contracts/ExampleMappingStruct.sol\":453:611  function getDpositNum(address _from, uint _numDeposit) public view returns(Transaction memory) {... */\n      swap3\n      swap2\n      pop\n      pop\n      jump\t// out\n        /* \"contracts/ExampleMappingStruct.sol\":619:786  function getWithdrawalNum(address _from, uint _numwithdraw) public view returns(Transaction memory) {... */\n    tag_26:\n        /* \"contracts/ExampleMappingStruct.sol\":699:717  Transaction memory */\n      tag_41\n      tag_39\n      jump\t// in\n    tag_41:\n        /* \"contracts/ExampleMappingStruct.sol\":737:745  balances */\n      0x00\n        /* \"contracts/ExampleMappingStruct.sol\":737:752  balances[_from] */\n      dup1\n        /* \"contracts/ExampleMappingStruct.sol\":746:751  _from */\n      dup5\n        /* \"contracts/ExampleMappingStruct.sol\":737:752  balances[_from] */\n      0xffffffffffffffffffffffffffffffffffffffff\n      and\n      0xffffffffffffffffffffffffffffffffffffffff\n      and\n      dup2\n      mstore\n      0x20\n      add\n      swap1\n      dup2\n      mstore\n      0x20\n      add\n      0x00\n      keccak256\n        /* \"contracts/ExampleMappingStruct.sol\":737:764  balances[_from].withdrawals */\n      0x04\n      add\n        /* \"contracts/ExampleMappingStruct.sol\":737:778  balances[_from].withdrawals[_numwithdraw] */\n      0x00\n        /* \"contracts/ExampleMappingStruct.sol\":765:777  _numwithdraw */\n      dup4\n        /* \"contracts/ExampleMappingStruct.sol\":737:778  balances[_from].withdrawals[_numwithdraw] */\n      dup2\n      mstore\n      0x20\n      add\n      swap1\n      dup2\n      mstore\n      0x20\n      add\n      0x00\n      keccak256\n        /* \"contracts/ExampleMappingStruct.sol\":730:778  return balances[_from].withdrawals[_numwithdraw] */\n      mload(0x40)\n      dup1\n      0x40\n      add\n      0x40\n      mstore\n      swap1\n      dup2\n      0x00\n      dup3\n      add\n      sload\n      dup2\n      mstore\n      0x20\n      add\n      0x01\n      dup3\n      add\n      sload\n      dup2\n      mstore\n      pop\n      pop\n      swap1\n      pop\n        /* \"contracts/ExampleMappingStruct.sol\":619:786  function getWithdrawalNum(address _from, uint _numwithdraw) public view returns(Transaction memory) {... */\n      swap3\n      swap2\n      pop\n      pop\n      jump\t// out\n        /* \"contracts/ExampleMappingStruct.sol\":1129:1520  function withdrawMoney(address payable _to, uint _amount) public   {... */\n    tag_32:\n        /* \"contracts/ExampleMappingStruct.sol\":1243:1250  _amount */\n      dup1\n        /* \"contracts/ExampleMappingStruct.sol\":1207:1215  balances */\n      0x00\n        /* \"contracts/ExampleMappingStruct.sol\":1207:1227  balances[msg.sender] */\n      dup1\n        /* \"contracts/ExampleMappingStruct.sol\":1216:1226  msg.sender */\n      caller\n        /* \"contracts/ExampleMappingStruct.sol\":1207:1227  balances[msg.sender] */\n      0xffffffffffffffffffffffffffffffffffffffff\n      and\n      0xffffffffffffffffffffffffffffffffffffffff\n      and\n      dup2\n      mstore\n      0x20\n      add\n      swap1\n      dup2\n      mstore\n      0x20\n      add\n      0x00\n      keccak256\n        /* \"contracts/ExampleMappingStruct.sol\":1207:1240  balances[msg.sender].totalBalance */\n      0x00\n      add\n      0x00\n        /* \"contracts/ExampleMappingStruct.sol\":1207:1250  balances[msg.sender].totalBalance -=_amount */\n      dup3\n      dup3\n      sload\n      tag_44\n      swap2\n      swap1\n      tag_45\n      jump\t// in\n    tag_44:\n      swap3\n      pop\n      pop\n      dup2\n      swap1\n      sstore\n      pop\n        /* \"contracts/ExampleMappingStruct.sol\":1263:1292  Transaction memory withdrawal */\n      0x00\n        /* \"contracts/ExampleMappingStruct.sol\":1295:1332  Transaction(_amount, block.timestamp) */\n      mload(0x40)\n      dup1\n      0x40\n      add\n      0x40\n      mstore\n      dup1\n        /* \"contracts/ExampleMappingStruct.sol\":1307:1314  _amount */\n      dup4\n        /* \"contracts/ExampleMappingStruct.sol\":1295:1332  Transaction(_amount, block.timestamp) */\n      dup2\n      mstore\n      0x20\n      add\n        /* \"contracts/ExampleMappingStruct.sol\":1316:1331  block.timestamp */\n      timestamp\n        /* \"contracts/ExampleMappingStruct.sol\":1295:1332  Transaction(_amount, block.timestamp) */\n      dup2\n      mstore\n      pop\n        /* \"contracts/ExampleMappingStruct.sol\":1263:1332  Transaction memory withdrawal = Transaction(_amount, block.timestamp) */\n      swap1\n      pop\n        /* \"contracts/ExampleMappingStruct.sol\":1417:1427  withdrawal */\n      dup1\n        /* \"contracts/ExampleMappingStruct.sol\":1345:1353  balances */\n      0x00\n        /* \"contracts/ExampleMappingStruct.sol\":1345:1365  balances[msg.sender] */\n      dup1\n        /* \"contracts/ExampleMappingStruct.sol\":1354:1364  msg.sender */\n      caller\n        /* \"contracts/ExampleMappingStruct.sol\":1345:1365  balances[msg.sender] */\n      0xffffffffffffffffffffffffffffffffffffffff\n      and\n      0xffffffffffffffffffffffffffffffffffffffff\n      and\n      dup2\n      mstore\n      0x20\n      add\n      swap1\n      dup2\n      mstore\n      0x20\n      add\n      0x00\n      keccak256\n        /* \"contracts/ExampleMappingStruct.sol\":1345:1377  balances[msg.sender].withdrawals */\n      0x04\n      add\n        /* \"contracts/ExampleMappingStruct.sol\":1345:1414  balances[msg.sender].withdrawals[balances[msg.sender].numWithdrawals] */\n      0x00\n        /* \"contracts/ExampleMappingStruct.sol\":1378:1386  balances */\n      dup1\n        /* \"contracts/ExampleMappingStruct.sol\":1378:1398  balances[msg.sender] */\n      0x00\n        /* \"contracts/ExampleMappingStruct.sol\":1387:1397  msg.sender */\n      caller\n        /* \"contracts/ExampleMappingStruct.sol\":1378:1398  balances[msg.sender] */\n      0xffffffffffffffffffffffffffffffffffffffff\n      and\n      0xffffffffffffffffffffffffffffffffffffffff\n      and\n      dup2\n      mstore\n      0x20\n      add\n      swap1\n      dup2\n      mstore\n      0x20\n      add\n      0x00\n      keccak256\n        /* \"contracts/ExampleMappingStruct.sol\":1378:1413  balances[msg.sender].numWithdrawals */\n      0x03\n      add\n      sload\n        /* \"contracts/ExampleMappingStruct.sol\":1345:1414  balances[msg.sender].withdrawals[balances[msg.sender].numWithdrawals] */\n      dup2\n      mstore\n      0x20\n      add\n      swap1\n      dup2\n      mstore\n      0x20\n      add\n      0x00\n      keccak256\n        /* \"contracts/ExampleMappingStruct.sol\":1345:1427  balances[msg.sender].withdrawals[balances[msg.sender].numWithdrawals] = withdrawal */\n      0x00\n      dup3\n      add\n      mload\n      dup2\n      0x00\n      add\n      sstore\n      0x20\n      dup3\n      add\n      mload\n      dup2\n      0x01\n      add\n      sstore\n      swap1\n      pop\n      pop\n        /* \"contracts/ExampleMappingStruct.sol\":1438:1446  balances */\n      0x00\n        /* \"contracts/ExampleMappingStruct.sol\":1438:1458  balances[msg.sender] */\n      dup1\n        /* \"contracts/ExampleMappingStruct.sol\":1447:1457  msg.sender */\n      caller\n        /* \"contracts/ExampleMappingStruct.sol\":1438:1458  balances[msg.sender] */\n      0xffffffffffffffffffffffffffffffffffffffff\n      and\n      0xffffffffffffffffffffffffffffffffffffffff\n      and\n      dup2\n      mstore\n      0x20\n      add\n      swap1\n      dup2\n      mstore\n      0x20\n      add\n      0x00\n      keccak256\n        /* \"contracts/ExampleMappingStruct.sol\":1438:1473  balances[msg.sender].numWithdrawals */\n      0x03\n      add\n      0x00\n        /* \"contracts/ExampleMappingStruct.sol\":1438:1476  balances[msg.sender].numWithdrawals ++ */\n      dup2\n      sload\n      dup1\n      swap3\n      swap2\n      swap1\n      tag_46\n      swap1\n      tag_37\n      jump\t// in\n    tag_46:\n      swap2\n      swap1\n      pop\n      sstore\n      pop\n        /* \"contracts/ExampleMappingStruct.sol\":1491:1494  _to */\n      dup3\n        /* \"contracts/ExampleMappingStruct.sol\":1491:1503  _to.transfer */\n      0xffffffffffffffffffffffffffffffffffffffff\n      and\n        /* \"contracts/ExampleMappingStruct.sol\":1491:1512  _to.transfer(_amount) */\n      0x08fc\n        /* \"contracts/ExampleMappingStruct.sol\":1504:1511  _amount */\n      dup4\n        /* \"contracts/ExampleMappingStruct.sol\":1491:1512  _to.transfer(_amount) */\n      swap1\n      dup2\n      iszero\n      mul\n      swap1\n      mload(0x40)\n      0x00\n      mload(0x40)\n      dup1\n      dup4\n      sub\n      dup2\n      dup6\n      dup9\n      dup9\n      call\n      swap4\n      pop\n      pop\n      pop\n      pop\n      iszero\n      dup1\n      iszero\n      tag_48\n      jumpi\n      returndatasize\n      0x00\n      dup1\n      returndatacopy\n      revert(0x00, returndatasize)\n    tag_48:\n      pop\n        /* \"contracts/ExampleMappingStruct.sol\":1196:1520  {... */\n      pop\n        /* \"contracts/ExampleMappingStruct.sol\":1129:1520  function withdrawMoney(address payable _to, uint _amount) public   {... */\n      pop\n      pop\n      jump\t// out\n    tag_39:\n      mload(0x40)\n      dup1\n      0x40\n      add\n      0x40\n      mstore\n      dup1\n      0x00\n      dup2\n      mstore\n      0x20\n      add\n      0x00\n      dup2\n      mstore\n      pop\n      swap1\n      jump\t// out\n        /* \"#utility.yul\":88:205   */\n    tag_50:\n        /* \"#utility.yul\":197:198   */\n      0x00\n        /* \"#utility.yul\":194:195   */\n      dup1\n        /* \"#utility.yul\":187:199   */\n      revert\n        /* \"#utility.yul\":334:460   */\n    tag_52:\n        /* \"#utility.yul\":371:378   */\n      0x00\n        /* \"#utility.yul\":411:453   */\n      0xffffffffffffffffffffffffffffffffffffffff\n        /* \"#utility.yul\":404:409   */\n      dup3\n        /* \"#utility.yul\":400:454   */\n      and\n        /* \"#utility.yul\":389:454   */\n      swap1\n      pop\n        /* \"#utility.yul\":334:460   */\n      swap2\n      swap1\n      pop\n      jump\t// out\n        /* \"#utility.yul\":466:562   */\n    tag_53:\n        /* \"#utility.yul\":503:510   */\n      0x00\n        /* \"#utility.yul\":532:556   */\n      tag_72\n        /* \"#utility.yul\":550:555   */\n      dup3\n        /* \"#utility.yul\":532:556   */\n      tag_52\n      jump\t// in\n    tag_72:\n        /* \"#utility.yul\":521:556   */\n      swap1\n      pop\n        /* \"#utility.yul\":466:562   */\n      swap2\n      swap1\n      pop\n      jump\t// out\n        /* \"#utility.yul\":568:690   */\n    tag_54:\n        /* \"#utility.yul\":641:665   */\n      tag_74\n        /* \"#utility.yul\":659:664   */\n      dup2\n        /* \"#utility.yul\":641:665   */\n      tag_53\n      jump\t// in\n    tag_74:\n        /* \"#utility.yul\":634:639   */\n      dup2\n        /* \"#utility.yul\":631:666   */\n      eq\n        /* \"#utility.yul\":621:684   */\n      tag_75\n      jumpi\n        /* \"#utility.yul\":680:681   */\n      0x00\n        /* \"#utility.yul\":677:678   */\n      dup1\n        /* \"#utility.yul\":670:682   */\n      revert\n        /* \"#utility.yul\":621:684   */\n    tag_75:\n        /* \"#utility.yul\":568:690   */\n      pop\n      jump\t// out\n        /* \"#utility.yul\":696:835   */\n    tag_55:\n        /* \"#utility.yul\":742:747   */\n      0x00\n        /* \"#utility.yul\":780:786   */\n      dup2\n        /* \"#utility.yul\":767:787   */\n      calldataload\n        /* \"#utility.yul\":758:787   */\n      swap1\n      pop\n        /* \"#utility.yul\":796:829   */\n      tag_77\n        /* \"#utility.yul\":823:828   */\n      dup2\n        /* \"#utility.yul\":796:829   */\n      tag_54\n      jump\t// in\n    tag_77:\n        /* \"#utility.yul\":696:835   */\n      swap3\n      swap2\n      pop\n      pop\n      jump\t// out\n        /* \"#utility.yul\":841:1170   */\n    tag_12:\n        /* \"#utility.yul\":900:906   */\n      0x00\n        /* \"#utility.yul\":949:951   */\n      0x20\n        /* \"#utility.yul\":937:946   */\n      dup3\n        /* \"#utility.yul\":928:935   */\n      dup5\n        /* \"#utility.yul\":924:947   */\n      sub\n        /* \"#utility.yul\":920:952   */\n      slt\n        /* \"#utility.yul\":917:1036   */\n      iszero\n      tag_79\n      jumpi\n        /* \"#utility.yul\":955:1034   */\n      tag_80\n      tag_50\n      jump\t// in\n    tag_80:\n        /* \"#utility.yul\":917:1036   */\n    tag_79:\n        /* \"#utility.yul\":1075:1076   */\n      0x00\n        /* \"#utility.yul\":1100:1153   */\n      tag_81\n        /* \"#utility.yul\":1145:1152   */\n      dup5\n        /* \"#utility.yul\":1136:1142   */\n      dup3\n        /* \"#utility.yul\":1125:1134   */\n      dup6\n        /* \"#utility.yul\":1121:1143   */\n      add\n        /* \"#utility.yul\":1100:1153   */\n      tag_55\n      jump\t// in\n    tag_81:\n        /* \"#utility.yul\":1090:1153   */\n      swap2\n      pop\n        /* \"#utility.yul\":1046:1163   */\n      pop\n        /* \"#utility.yul\":841:1170   */\n      swap3\n      swap2\n      pop\n      pop\n      jump\t// out\n        /* \"#utility.yul\":1176:1253   */\n    tag_56:\n        /* \"#utility.yul\":1213:1220   */\n      0x00\n        /* \"#utility.yul\":1242:1247   */\n      dup2\n        /* \"#utility.yul\":1231:1247   */\n      swap1\n      pop\n        /* \"#utility.yul\":1176:1253   */\n      swap2\n      swap1\n      pop\n      jump\t// out\n        /* \"#utility.yul\":1259:1377   */\n    tag_57:\n        /* \"#utility.yul\":1346:1370   */\n      tag_84\n        /* \"#utility.yul\":1364:1369   */\n      dup2\n        /* \"#utility.yul\":1346:1370   */\n      tag_56\n      jump\t// in\n    tag_84:\n        /* \"#utility.yul\":1341:1344   */\n      dup3\n        /* \"#utility.yul\":1334:1371   */\n      mstore\n        /* \"#utility.yul\":1259:1377   */\n      pop\n      pop\n      jump\t// out\n        /* \"#utility.yul\":1383:1825   */\n    tag_15:\n        /* \"#utility.yul\":1532:1536   */\n      0x00\n        /* \"#utility.yul\":1570:1572   */\n      0x60\n        /* \"#utility.yul\":1559:1568   */\n      dup3\n        /* \"#utility.yul\":1555:1573   */\n      add\n        /* \"#utility.yul\":1547:1573   */\n      swap1\n      pop\n        /* \"#utility.yul\":1583:1654   */\n      tag_86\n        /* \"#utility.yul\":1651:1652   */\n      0x00\n        /* \"#utility.yul\":1640:1649   */\n      dup4\n        /* \"#utility.yul\":1636:1653   */\n      add\n        /* \"#utility.yul\":1627:1633   */\n      dup7\n        /* \"#utility.yul\":1583:1654   */\n      tag_57\n      jump\t// in\n    tag_86:\n        /* \"#utility.yul\":1664:1736   */\n      tag_87\n        /* \"#utility.yul\":1732:1734   */\n      0x20\n        /* \"#utility.yul\":1721:1730   */\n      dup4\n        /* \"#utility.yul\":1717:1735   */\n      add\n        /* \"#utility.yul\":1708:1714   */\n      dup6\n        /* \"#utility.yul\":1664:1736   */\n      tag_57\n      jump\t// in\n    tag_87:\n        /* \"#utility.yul\":1746:1818   */\n      tag_88\n        /* \"#utility.yul\":1814:1816   */\n      0x40\n        /* \"#utility.yul\":1803:1812   */\n      dup4\n        /* \"#utility.yul\":1799:1817   */\n      add\n        /* \"#utility.yul\":1790:1796   */\n      dup5\n        /* \"#utility.yul\":1746:1818   */\n      tag_57\n      jump\t// in\n    tag_88:\n        /* \"#utility.yul\":1383:1825   */\n      swap5\n      swap4\n      pop\n      pop\n      pop\n      pop\n      jump\t// out\n        /* \"#utility.yul\":1831:1953   */\n    tag_58:\n        /* \"#utility.yul\":1904:1928   */\n      tag_90\n        /* \"#utility.yul\":1922:1927   */\n      dup2\n        /* \"#utility.yul\":1904:1928   */\n      tag_56\n      jump\t// in\n    tag_90:\n        /* \"#utility.yul\":1897:1902   */\n      dup2\n        /* \"#utility.yul\":1894:1929   */\n      eq\n        /* \"#utility.yul\":1884:1947   */\n      tag_91\n      jumpi\n        /* \"#utility.yul\":1943:1944   */\n      0x00\n        /* \"#utility.yul\":1940:1941   */\n      dup1\n        /* \"#utility.yul\":1933:1945   */\n      revert\n        /* \"#utility.yul\":1884:1947   */\n    tag_91:\n        /* \"#utility.yul\":1831:1953   */\n      pop\n      jump\t// out\n        /* \"#utility.yul\":1959:2098   */\n    tag_59:\n        /* \"#utility.yul\":2005:2010   */\n      0x00\n        /* \"#utility.yul\":2043:2049   */\n      dup2\n        /* \"#utility.yul\":2030:2050   */\n      calldataload\n        /* \"#utility.yul\":2021:2050   */\n      swap1\n      pop\n        /* \"#utility.yul\":2059:2092   */\n      tag_93\n        /* \"#utility.yul\":2086:2091   */\n      dup2\n        /* \"#utility.yul\":2059:2092   */\n      tag_58\n      jump\t// in\n    tag_93:\n        /* \"#utility.yul\":1959:2098   */\n      swap3\n      swap2\n      pop\n      pop\n      jump\t// out\n        /* \"#utility.yul\":2104:2578   */\n    tag_19:\n        /* \"#utility.yul\":2172:2178   */\n      0x00\n        /* \"#utility.yul\":2180:2186   */\n      dup1\n        /* \"#utility.yul\":2229:2231   */\n      0x40\n        /* \"#utility.yul\":2217:2226   */\n      dup4\n        /* \"#utility.yul\":2208:2215   */\n      dup6\n        /* \"#utility.yul\":2204:2227   */\n      sub\n        /* \"#utility.yul\":2200:2232   */\n      slt\n        /* \"#utility.yul\":2197:2316   */\n      iszero\n      tag_95\n      jumpi\n        /* \"#utility.yul\":2235:2314   */\n      tag_96\n      tag_50\n      jump\t// in\n    tag_96:\n        /* \"#utility.yul\":2197:2316   */\n    tag_95:\n        /* \"#utility.yul\":2355:2356   */\n      0x00\n        /* \"#utility.yul\":2380:2433   */\n      tag_97\n        /* \"#utility.yul\":2425:2432   */\n      dup6\n        /* \"#utility.yul\":2416:2422   */\n      dup3\n        /* \"#utility.yul\":2405:2414   */\n      dup7\n        /* \"#utility.yul\":2401:2423   */\n      add\n        /* \"#utility.yul\":2380:2433   */\n      tag_55\n      jump\t// in\n    tag_97:\n        /* \"#utility.yul\":2370:2433   */\n      swap3\n      pop\n        /* \"#utility.yul\":2326:2443   */\n      pop\n        /* \"#utility.yul\":2482:2484   */\n      0x20\n        /* \"#utility.yul\":2508:2561   */\n      tag_98\n        /* \"#utility.yul\":2553:2560   */\n      dup6\n        /* \"#utility.yul\":2544:2550   */\n      dup3\n        /* \"#utility.yul\":2533:2542   */\n      dup7\n        /* \"#utility.yul\":2529:2551   */\n      add\n        /* \"#utility.yul\":2508:2561   */\n      tag_59\n      jump\t// in\n    tag_98:\n        /* \"#utility.yul\":2498:2561   */\n      swap2\n      pop\n        /* \"#utility.yul\":2453:2571   */\n      pop\n        /* \"#utility.yul\":2104:2578   */\n      swap3\n      pop\n      swap3\n      swap1\n      pop\n      jump\t// out\n        /* \"#utility.yul\":2584:2692   */\n    tag_60:\n        /* \"#utility.yul\":2661:2685   */\n      tag_100\n        /* \"#utility.yul\":2679:2684   */\n      dup2\n        /* \"#utility.yul\":2661:2685   */\n      tag_56\n      jump\t// in\n    tag_100:\n        /* \"#utility.yul\":2656:2659   */\n      dup3\n        /* \"#utility.yul\":2649:2686   */\n      mstore\n        /* \"#utility.yul\":2584:2692   */\n      pop\n      pop\n      jump\t// out\n        /* \"#utility.yul\":2788:3304   */\n    tag_61:\n        /* \"#utility.yul\":2937:2941   */\n      0x40\n        /* \"#utility.yul\":2932:2935   */\n      dup3\n        /* \"#utility.yul\":2928:2942   */\n      add\n        /* \"#utility.yul\":3026:3030   */\n      0x00\n        /* \"#utility.yul\":3019:3024   */\n      dup3\n        /* \"#utility.yul\":3015:3031   */\n      add\n        /* \"#utility.yul\":3009:3032   */\n      mload\n        /* \"#utility.yul\":3045:3108   */\n      tag_102\n        /* \"#utility.yul\":3102:3106   */\n      0x00\n        /* \"#utility.yul\":3097:3100   */\n      dup6\n        /* \"#utility.yul\":3093:3107   */\n      add\n        /* \"#utility.yul\":3079:3091   */\n      dup3\n        /* \"#utility.yul\":3045:3108   */\n      tag_60\n      jump\t// in\n    tag_102:\n        /* \"#utility.yul\":2952:3118   */\n      pop\n        /* \"#utility.yul\":3205:3209   */\n      0x20\n        /* \"#utility.yul\":3198:3203   */\n      dup3\n        /* \"#utility.yul\":3194:3210   */\n      add\n        /* \"#utility.yul\":3188:3211   */\n      mload\n        /* \"#utility.yul\":3224:3287   */\n      tag_103\n        /* \"#utility.yul\":3281:3285   */\n      0x20\n        /* \"#utility.yul\":3276:3279   */\n      dup6\n        /* \"#utility.yul\":3272:3286   */\n      add\n        /* \"#utility.yul\":3258:3270   */\n      dup3\n        /* \"#utility.yul\":3224:3287   */\n      tag_60\n      jump\t// in\n    tag_103:\n        /* \"#utility.yul\":3128:3297   */\n      pop\n        /* \"#utility.yul\":2906:3304   */\n      pop\n        /* \"#utility.yul\":2788:3304   */\n      pop\n      pop\n      jump\t// out\n        /* \"#utility.yul\":3310:3636   */\n    tag_22:\n        /* \"#utility.yul\":3455:3459   */\n      0x00\n        /* \"#utility.yul\":3493:3495   */\n      0x40\n        /* \"#utility.yul\":3482:3491   */\n      dup3\n        /* \"#utility.yul\":3478:3496   */\n      add\n        /* \"#utility.yul\":3470:3496   */\n      swap1\n      pop\n        /* \"#utility.yul\":3506:3629   */\n      tag_105\n        /* \"#utility.yul\":3626:3627   */\n      0x00\n        /* \"#utility.yul\":3615:3624   */\n      dup4\n        /* \"#utility.yul\":3611:3628   */\n      add\n        /* \"#utility.yul\":3602:3608   */\n      dup5\n        /* \"#utility.yul\":3506:3629   */\n      tag_61\n      jump\t// in\n    tag_105:\n        /* \"#utility.yul\":3310:3636   */\n      swap3\n      swap2\n      pop\n      pop\n      jump\t// out\n        /* \"#utility.yul\":3642:3746   */\n    tag_62:\n        /* \"#utility.yul\":3687:3694   */\n      0x00\n        /* \"#utility.yul\":3716:3740   */\n      tag_107\n        /* \"#utility.yul\":3734:3739   */\n      dup3\n        /* \"#utility.yul\":3716:3740   */\n      tag_52\n      jump\t// in\n    tag_107:\n        /* \"#utility.yul\":3705:3740   */\n      swap1\n      pop\n        /* \"#utility.yul\":3642:3746   */\n      swap2\n      swap1\n      pop\n      jump\t// out\n        /* \"#utility.yul\":3752:3890   */\n    tag_63:\n        /* \"#utility.yul\":3833:3865   */\n      tag_109\n        /* \"#utility.yul\":3859:3864   */\n      dup2\n        /* \"#utility.yul\":3833:3865   */\n      tag_62\n      jump\t// in\n    tag_109:\n        /* \"#utility.yul\":3826:3831   */\n      dup2\n        /* \"#utility.yul\":3823:3866   */\n      eq\n        /* \"#utility.yul\":3813:3884   */\n      tag_110\n      jumpi\n        /* \"#utility.yul\":3880:3881   */\n      0x00\n        /* \"#utility.yul\":3877:3878   */\n      dup1\n        /* \"#utility.yul\":3870:3882   */\n      revert\n        /* \"#utility.yul\":3813:3884   */\n    tag_110:\n        /* \"#utility.yul\":3752:3890   */\n      pop\n      jump\t// out\n        /* \"#utility.yul\":3896:4051   */\n    tag_64:\n        /* \"#utility.yul\":3950:3955   */\n      0x00\n        /* \"#utility.yul\":3988:3994   */\n      dup2\n        /* \"#utility.yul\":3975:3995   */\n      calldataload\n        /* \"#utility.yul\":3966:3995   */\n      swap1\n      pop\n        /* \"#utility.yul\":4004:4045   */\n      tag_112\n        /* \"#utility.yul\":4039:4044   */\n      dup2\n        /* \"#utility.yul\":4004:4045   */\n      tag_63\n      jump\t// in\n    tag_112:\n        /* \"#utility.yul\":3896:4051   */\n      swap3\n      swap2\n      pop\n      pop\n      jump\t// out\n        /* \"#utility.yul\":4057:4547   */\n    tag_31:\n        /* \"#utility.yul\":4133:4139   */\n      0x00\n        /* \"#utility.yul\":4141:4147   */\n      dup1\n        /* \"#utility.yul\":4190:4192   */\n      0x40\n        /* \"#utility.yul\":4178:4187   */\n      dup4\n        /* \"#utility.yul\":4169:4176   */\n      dup6\n        /* \"#utility.yul\":4165:4188   */\n      sub\n        /* \"#utility.yul\":4161:4193   */\n      slt\n        /* \"#utility.yul\":4158:4277   */\n      iszero\n      tag_114\n      jumpi\n        /* \"#utility.yul\":4196:4275   */\n      tag_115\n      tag_50\n      jump\t// in\n    tag_115:\n        /* \"#utility.yul\":4158:4277   */\n    tag_114:\n        /* \"#utility.yul\":4316:4317   */\n      0x00\n        /* \"#utility.yul\":4341:4402   */\n      tag_116\n        /* \"#utility.yul\":4394:4401   */\n      dup6\n        /* \"#utility.yul\":4385:4391   */\n      dup3\n        /* \"#utility.yul\":4374:4383   */\n      dup7\n        /* \"#utility.yul\":4370:4392   */\n      add\n        /* \"#utility.yul\":4341:4402   */\n      tag_64\n      jump\t// in\n    tag_116:\n        /* \"#utility.yul\":4331:4402   */\n      swap3\n      pop\n        /* \"#utility.yul\":4287:4412   */\n      pop\n        /* \"#utility.yul\":4451:4453   */\n      0x20\n        /* \"#utility.yul\":4477:4530   */\n      tag_117\n        /* \"#utility.yul\":4522:4529   */\n      dup6\n        /* \"#utility.yul\":4513:4519   */\n      dup3\n        /* \"#utility.yul\":4502:4511   */\n      dup7\n        /* \"#utility.yul\":4498:4520   */\n      add\n        /* \"#utility.yul\":4477:4530   */\n      tag_59\n      jump\t// in\n    tag_117:\n        /* \"#utility.yul\":4467:4530   */\n      swap2\n      pop\n        /* \"#utility.yul\":4422:4540   */\n      pop\n        /* \"#utility.yul\":4057:4547   */\n      swap3\n      pop\n      swap3\n      swap1\n      pop\n      jump\t// out\n        /* \"#utility.yul\":4553:4733   */\n    tag_65:\n        /* \"#utility.yul\":4601:4678   */\n      0x4e487b7100000000000000000000000000000000000000000000000000000000\n        /* \"#utility.yul\":4598:4599   */\n      0x00\n        /* \"#utility.yul\":4591:4679   */\n      mstore\n        /* \"#utility.yul\":4698:4702   */\n      0x11\n        /* \"#utility.yul\":4695:4696   */\n      0x04\n        /* \"#utility.yul\":4688:4703   */\n      mstore\n        /* \"#utility.yul\":4722:4726   */\n      0x24\n        /* \"#utility.yul\":4719:4720   */\n      0x00\n        /* \"#utility.yul\":4712:4727   */\n      revert\n        /* \"#utility.yul\":4739:4930   */\n    tag_35:\n        /* \"#utility.yul\":4779:4782   */\n      0x00\n        /* \"#utility.yul\":4798:4818   */\n      tag_120\n        /* \"#utility.yul\":4816:4817   */\n      dup3\n        /* \"#utility.yul\":4798:4818   */\n      tag_56\n      jump\t// in\n    tag_120:\n        /* \"#utility.yul\":4793:4818   */\n      swap2\n      pop\n        /* \"#utility.yul\":4832:4852   */\n      tag_121\n        /* \"#utility.yul\":4850:4851   */\n      dup4\n        /* \"#utility.yul\":4832:4852   */\n      tag_56\n      jump\t// in\n    tag_121:\n        /* \"#utility.yul\":4827:4852   */\n      swap3\n      pop\n        /* \"#utility.yul\":4875:4876   */\n      dup3\n        /* \"#utility.yul\":4872:4873   */\n      dup3\n        /* \"#utility.yul\":4868:4877   */\n      add\n        /* \"#utility.yul\":4861:4877   */\n      swap1\n      pop\n        /* \"#utility.yul\":4896:4899   */\n      dup1\n        /* \"#utility.yul\":4893:4894   */\n      dup3\n        /* \"#utility.yul\":4890:4900   */\n      gt\n        /* \"#utility.yul\":4887:4923   */\n      iszero\n      tag_122\n      jumpi\n        /* \"#utility.yul\":4903:4921   */\n      tag_123\n      tag_65\n      jump\t// in\n    tag_123:\n        /* \"#utility.yul\":4887:4923   */\n    tag_122:\n        /* \"#utility.yul\":4739:4930   */\n      swap3\n      swap2\n      pop\n      pop\n      jump\t// out\n        /* \"#utility.yul\":4936:5169   */\n    tag_37:\n        /* \"#utility.yul\":4975:4978   */\n      0x00\n        /* \"#utility.yul\":4998:5022   */\n      tag_125\n        /* \"#utility.yul\":5016:5021   */\n      dup3\n        /* \"#utility.yul\":4998:5022   */\n      tag_56\n      jump\t// in\n    tag_125:\n        /* \"#utility.yul\":4989:5022   */\n      swap2\n      pop\n        /* \"#utility.yul\":5044:5110   */\n      0xffffffffffffffffffffffffffffffffffffffffffffffffffffffffffffffff\n        /* \"#utility.yul\":5037:5042   */\n      dup3\n        /* \"#utility.yul\":5034:5111   */\n      sub\n        /* \"#utility.yul\":5031:5134   */\n      tag_126\n      jumpi\n        /* \"#utility.yul\":5114:5132   */\n      tag_127\n      tag_65\n      jump\t// in\n    tag_127:\n        /* \"#utility.yul\":5031:5134   */\n    tag_126:\n        /* \"#utility.yul\":5161:5162   */\n      0x01\n        /* \"#utility.yul\":5154:5159   */\n      dup3\n        /* \"#utility.yul\":5150:5163   */\n      add\n        /* \"#utility.yul\":5143:5163   */\n      swap1\n      pop\n        /* \"#utility.yul\":4936:5169   */\n      swap2\n      swap1\n      pop\n      jump\t// out\n        /* \"#utility.yul\":5175:5369   */\n    tag_45:\n        /* \"#utility.yul\":5215:5219   */\n      0x00\n        /* \"#utility.yul\":5235:5255   */\n      tag_129\n        /* \"#utility.yul\":5253:5254   */\n      dup3\n        /* \"#utility.yul\":5235:5255   */\n      tag_56\n      jump\t// in\n    tag_129:\n        /* \"#utility.yul\":5230:5255   */\n      swap2\n      pop\n        /* \"#utility.yul\":5269:5289   */\n      tag_130\n        /* \"#utility.yul\":5287:5288   */\n      dup4\n        /* \"#utility.yul\":5269:5289   */\n      tag_56\n      jump\t// in\n    tag_130:\n        /* \"#utility.yul\":5264:5289   */\n      swap3\n      pop\n        /* \"#utility.yul\":5313:5314   */\n      dup3\n        /* \"#utility.yul\":5310:5311   */\n      dup3\n        /* \"#utility.yul\":5306:5315   */\n      sub\n        /* \"#utility.yul\":5298:5315   */\n      swap1\n      pop\n        /* \"#utility.yul\":5337:5338   */\n      dup2\n        /* \"#utility.yul\":5331:5335   */\n      dup2\n        /* \"#utility.yul\":5328:5339   */\n      gt\n        /* \"#utility.yul\":5325:5362   */\n      iszero\n      tag_131\n      jumpi\n        /* \"#utility.yul\":5342:5360   */\n      tag_132\n      tag_65\n      jump\t// in\n    tag_132:\n        /* \"#utility.yul\":5325:5362   */\n    tag_131:\n        /* \"#utility.yul\":5175:5369   */\n      swap3\n      swap2\n      pop\n      pop\n      jump\t// out\n\n    auxdata: 0xa2646970667358221220f6b9157d94621752177cb262408fe6611ac1fa6c6e68b8952180e174361f454764736f6c63430008190033\n}\n",
				"bytecode": {
					"linkReferences": {},
					"object": "6080604052348015600e575f80fd5b506108988061001c5f395ff3fe608060405260043610610049575f3560e01c806316c05aa21461004d57806327e235e314610057578063aafc89a214610095578063ed48e9bc146100d1578063f274c8971461010d575b5f80fd5b610055610135565b005b348015610062575f80fd5b5061007d600480360381019061007891906105da565b61029b565b60405161008c9392919061061d565b60405180910390f35b3480156100a0575f80fd5b506100bb60048036038101906100b6919061067c565b6102c0565b6040516100c891906106f6565b60405180910390f35b3480156100dc575f80fd5b506100f760048036038101906100f2919061067c565b61033c565b60405161010491906106f6565b60405180910390f35b348015610118575f80fd5b50610133600480360381019061012e919061074a565b6103b8565b005b345f803373ffffffffffffffffffffffffffffffffffffffff1673ffffffffffffffffffffffffffffffffffffffff1681526020019081526020015f205f015f82825461018291906107b5565b925050819055505f6040518060400160405280348152602001428152509050805f803373ffffffffffffffffffffffffffffffffffffffff1673ffffffffffffffffffffffffffffffffffffffff1681526020019081526020015f206002015f805f3373ffffffffffffffffffffffffffffffffffffffff1673ffffffffffffffffffffffffffffffffffffffff1681526020019081526020015f206001015481526020019081526020015f205f820151815f0155602082015181600101559050505f803373ffffffffffffffffffffffffffffffffffffffff1673ffffffffffffffffffffffffffffffffffffffff1681526020019081526020015f206001015f815480929190610293906107e8565b919050555050565b5f602052805f5260405f205f91509050805f0154908060010154908060030154905083565b6102c8610564565b5f808473ffffffffffffffffffffffffffffffffffffffff1673ffffffffffffffffffffffffffffffffffffffff1681526020019081526020015f206002015f8381526020019081526020015f206040518060400160405290815f8201548152602001600182015481525050905092915050565b610344610564565b5f808473ffffffffffffffffffffffffffffffffffffffff1673ffffffffffffffffffffffffffffffffffffffff1681526020019081526020015f206004015f8381526020019081526020015f206040518060400160405290815f8201548152602001600182015481525050905092915050565b805f803373ffffffffffffffffffffffffffffffffffffffff1673ffffffffffffffffffffffffffffffffffffffff1681526020019081526020015f205f015f828254610405919061082f565b925050819055505f6040518060400160405280838152602001428152509050805f803373ffffffffffffffffffffffffffffffffffffffff1673ffffffffffffffffffffffffffffffffffffffff1681526020019081526020015f206004015f805f3373ffffffffffffffffffffffffffffffffffffffff1673ffffffffffffffffffffffffffffffffffffffff1681526020019081526020015f206003015481526020019081526020015f205f820151815f0155602082015181600101559050505f803373ffffffffffffffffffffffffffffffffffffffff1673ffffffffffffffffffffffffffffffffffffffff1681526020019081526020015f206003015f815480929190610516906107e8565b91905055508273ffffffffffffffffffffffffffffffffffffffff166108fc8390811502906040515f60405180830381858888f1935050505015801561055e573d5f803e3d5ffd5b50505050565b60405180604001604052805f81526020015f81525090565b5f80fd5b5f73ffffffffffffffffffffffffffffffffffffffff82169050919050565b5f6105a982610580565b9050919050565b6105b98161059f565b81146105c3575f80fd5b50565b5f813590506105d4816105b0565b92915050565b5f602082840312156105ef576105ee61057c565b5b5f6105fc848285016105c6565b91505092915050565b5f819050919050565b61061781610605565b82525050565b5f6060820190506106305f83018661060e565b61063d602083018561060e565b61064a604083018461060e565b949350505050565b61065b81610605565b8114610665575f80fd5b50565b5f8135905061067681610652565b92915050565b5f80604083850312156106925761069161057c565b5b5f61069f858286016105c6565b92505060206106b085828601610668565b9150509250929050565b6106c381610605565b82525050565b604082015f8201516106dd5f8501826106ba565b5060208201516106f060208501826106ba565b50505050565b5f6040820190506107095f8301846106c9565b92915050565b5f61071982610580565b9050919050565b6107298161070f565b8114610733575f80fd5b50565b5f8135905061074481610720565b92915050565b5f80604083850312156107605761075f61057c565b5b5f61076d85828601610736565b925050602061077e85828601610668565b9150509250929050565b7f4e487b71000000000000000000000000000000000000000000000000000000005f52601160045260245ffd5b5f6107bf82610605565b91506107ca83610605565b92508282019050808211156107e2576107e1610788565b5b92915050565b5f6107f282610605565b91507fffffffffffffffffffffffffffffffffffffffffffffffffffffffffffffffff820361082457610823610788565b5b600182019050919050565b5f61083982610605565b915061084483610605565b925082820390508181111561085c5761085b610788565b5b9291505056fea2646970667358221220f6b9157d94621752177cb262408fe6611ac1fa6c6e68b8952180e174361f454764736f6c63430008190033",
					"opcodes": "PUSH1 0x80 PUSH1 0x40 MSTORE CALLVALUE DUP1 ISZERO PUSH1 0xE JUMPI PUSH0 DUP1 REVERT JUMPDEST POP PUSH2 0x898 DUP1 PUSH2 0x1C PUSH0 CODECOPY PUSH0 RETURN INVALID PUSH1 0x80 PUSH1 0x40 MSTORE PUSH1 0x4 CALLDATASIZE LT PUSH2 0x49 JUMPI PUSH0 CALLDATALOAD PUSH1 0xE0 SHR DUP1 PUSH4 0x16C05AA2 EQ PUSH2 0x4D JUMPI DUP1 PUSH4 0x27E235E3 EQ PUSH2 0x57 JUMPI DUP1 PUSH4 0xAAFC89A2 EQ PUSH2 0x95 JUMPI DUP1 PUSH4 0xED48E9BC EQ PUSH2 0xD1 JUMPI DUP1 PUSH4 0xF274C897 EQ PUSH2 0x10D JUMPI JUMPDEST PUSH0 DUP1 REVERT JUMPDEST PUSH2 0x55 PUSH2 0x135 JUMP JUMPDEST STOP JUMPDEST CALLVALUE DUP1 ISZERO PUSH2 0x62 JUMPI PUSH0 DUP1 REVERT JUMPDEST POP PUSH2 0x7D PUSH1 0x4 DUP1 CALLDATASIZE SUB DUP2 ADD SWAP1 PUSH2 0x78 SWAP2 SWAP1 PUSH2 0x5DA JUMP JUMPDEST PUSH2 0x29B JUMP JUMPDEST PUSH1 0x40 MLOAD PUSH2 0x8C SWAP4 SWAP3 SWAP2 SWAP1 PUSH2 0x61D JUMP JUMPDEST PUSH1 0x40 MLOAD DUP1 SWAP2 SUB SWAP1 RETURN JUMPDEST CALLVALUE DUP1 ISZERO PUSH2 0xA0 JUMPI PUSH0 DUP1 REVERT JUMPDEST POP PUSH2 0xBB PUSH1 0x4 DUP1 CALLDATASIZE SUB DUP2 ADD SWAP1 PUSH2 0xB6 SWAP2 SWAP1 PUSH2 0x67C JUMP JUMPDEST PUSH2 0x2C0 JUMP JUMPDEST PUSH1 0x40 MLOAD PUSH2 0xC8 SWAP2 SWAP1 PUSH2 0x6F6 JUMP JUMPDEST PUSH1 0x40 MLOAD DUP1 SWAP2 SUB SWAP1 RETURN JUMPDEST CALLVALUE DUP1 ISZERO PUSH2 0xDC JUMPI PUSH0 DUP1 REVERT JUMPDEST POP PUSH2 0xF7 PUSH1 0x4 DUP1 CALLDATASIZE SUB DUP2 ADD SWAP1 PUSH2 0xF2 SWAP2 SWAP1 PUSH2 0x67C JUMP JUMPDEST PUSH2 0x33C JUMP JUMPDEST PUSH1 0x40 MLOAD PUSH2 0x104 SWAP2 SWAP1 PUSH2 0x6F6 JUMP JUMPDEST PUSH1 0x40 MLOAD DUP1 SWAP2 SUB SWAP1 RETURN JUMPDEST CALLVALUE DUP1 ISZERO PUSH2 0x118 JUMPI PUSH0 DUP1 REVERT JUMPDEST POP PUSH2 0x133 PUSH1 0x4 DUP1 CALLDATASIZE SUB DUP2 ADD SWAP1 PUSH2 0x12E SWAP2 SWAP1 PUSH2 0x74A JUMP JUMPDEST PUSH2 0x3B8 JUMP JUMPDEST STOP JUMPDEST CALLVALUE PUSH0 DUP1 CALLER PUSH20 0xFFFFFFFFFFFFFFFFFFFFFFFFFFFFFFFFFFFFFFFF AND PUSH20 0xFFFFFFFFFFFFFFFFFFFFFFFFFFFFFFFFFFFFFFFF AND DUP2 MSTORE PUSH1 0x20 ADD SWAP1 DUP2 MSTORE PUSH1 0x20 ADD PUSH0 KECCAK256 PUSH0 ADD PUSH0 DUP3 DUP3 SLOAD PUSH2 0x182 SWAP2 SWAP1 PUSH2 0x7B5 JUMP JUMPDEST SWAP3 POP POP DUP2 SWAP1 SSTORE POP PUSH0 PUSH1 0x40 MLOAD DUP1 PUSH1 0x40 ADD PUSH1 0x40 MSTORE DUP1 CALLVALUE DUP2 MSTORE PUSH1 0x20 ADD TIMESTAMP DUP2 MSTORE POP SWAP1 POP DUP1 PUSH0 DUP1 CALLER PUSH20 0xFFFFFFFFFFFFFFFFFFFFFFFFFFFFFFFFFFFFFFFF AND PUSH20 0xFFFFFFFFFFFFFFFFFFFFFFFFFFFFFFFFFFFFFFFF AND DUP2 MSTORE PUSH1 0x20 ADD SWAP1 DUP2 MSTORE PUSH1 0x20 ADD PUSH0 KECCAK256 PUSH1 0x2 ADD PUSH0 DUP1 PUSH0 CALLER PUSH20 0xFFFFFFFFFFFFFFFFFFFFFFFFFFFFFFFFFFFFFFFF AND PUSH20 0xFFFFFFFFFFFFFFFFFFFFFFFFFFFFFFFFFFFFFFFF AND DUP2 MSTORE PUSH1 0x20 ADD SWAP1 DUP2 MSTORE PUSH1 0x20 ADD PUSH0 KECCAK256 PUSH1 0x1 ADD SLOAD DUP2 MSTORE PUSH1 0x20 ADD SWAP1 DUP2 MSTORE PUSH1 0x20 ADD PUSH0 KECCAK256 PUSH0 DUP3 ADD MLOAD DUP2 PUSH0 ADD SSTORE PUSH1 0x20 DUP3 ADD MLOAD DUP2 PUSH1 0x1 ADD SSTORE SWAP1 POP POP PUSH0 DUP1 CALLER PUSH20 0xFFFFFFFFFFFFFFFFFFFFFFFFFFFFFFFFFFFFFFFF AND PUSH20 0xFFFFFFFFFFFFFFFFFFFFFFFFFFFFFFFFFFFFFFFF AND DUP2 MSTORE PUSH1 0x20 ADD SWAP1 DUP2 MSTORE PUSH1 0x20 ADD PUSH0 KECCAK256 PUSH1 0x1 ADD PUSH0 DUP2 SLOAD DUP1 SWAP3 SWAP2 SWAP1 PUSH2 0x293 SWAP1 PUSH2 0x7E8 JUMP JUMPDEST SWAP2 SWAP1 POP SSTORE POP POP JUMP JUMPDEST PUSH0 PUSH1 0x20 MSTORE DUP1 PUSH0 MSTORE PUSH1 0x40 PUSH0 KECCAK256 PUSH0 SWAP2 POP SWAP1 POP DUP1 PUSH0 ADD SLOAD SWAP1 DUP1 PUSH1 0x1 ADD SLOAD SWAP1 DUP1 PUSH1 0x3 ADD SLOAD SWAP1 POP DUP4 JUMP JUMPDEST PUSH2 0x2C8 PUSH2 0x564 JUMP JUMPDEST PUSH0 DUP1 DUP5 PUSH20 0xFFFFFFFFFFFFFFFFFFFFFFFFFFFFFFFFFFFFFFFF AND PUSH20 0xFFFFFFFFFFFFFFFFFFFFFFFFFFFFFFFFFFFFFFFF AND DUP2 MSTORE PUSH1 0x20 ADD SWAP1 DUP2 MSTORE PUSH1 0x20 ADD PUSH0 KECCAK256 PUSH1 0x2 ADD PUSH0 DUP4 DUP2 MSTORE PUSH1 0x20 ADD SWAP1 DUP2 MSTORE PUSH1 0x20 ADD PUSH0 KECCAK256 PUSH1 0x40 MLOAD DUP1 PUSH1 0x40 ADD PUSH1 0x40 MSTORE SWAP1 DUP2 PUSH0 DUP3 ADD SLOAD DUP2 MSTORE PUSH1 0x20 ADD PUSH1 0x1 DUP3 ADD SLOAD DUP2 MSTORE POP POP SWAP1 POP SWAP3 SWAP2 POP POP JUMP JUMPDEST PUSH2 0x344 PUSH2 0x564 JUMP JUMPDEST PUSH0 DUP1 DUP5 PUSH20 0xFFFFFFFFFFFFFFFFFFFFFFFFFFFFFFFFFFFFFFFF AND PUSH20 0xFFFFFFFFFFFFFFFFFFFFFFFFFFFFFFFFFFFFFFFF AND DUP2 MSTORE PUSH1 0x20 ADD SWAP1 DUP2 MSTORE PUSH1 0x20 ADD PUSH0 KECCAK256 PUSH1 0x4 ADD PUSH0 DUP4 DUP2 MSTORE PUSH1 0x20 ADD SWAP1 DUP2 MSTORE PUSH1 0x20 ADD PUSH0 KECCAK256 PUSH1 0x40 MLOAD DUP1 PUSH1 0x40 ADD PUSH1 0x40 MSTORE SWAP1 DUP2 PUSH0 DUP3 ADD SLOAD DUP2 MSTORE PUSH1 0x20 ADD PUSH1 0x1 DUP3 ADD SLOAD DUP2 MSTORE POP POP SWAP1 POP SWAP3 SWAP2 POP POP JUMP JUMPDEST DUP1 PUSH0 DUP1 CALLER PUSH20 0xFFFFFFFFFFFFFFFFFFFFFFFFFFFFFFFFFFFFFFFF AND PUSH20 0xFFFFFFFFFFFFFFFFFFFFFFFFFFFFFFFFFFFFFFFF AND DUP2 MSTORE PUSH1 0x20 ADD SWAP1 DUP2 MSTORE PUSH1 0x20 ADD PUSH0 KECCAK256 PUSH0 ADD PUSH0 DUP3 DUP3 SLOAD PUSH2 0x405 SWAP2 SWAP1 PUSH2 0x82F JUMP JUMPDEST SWAP3 POP POP DUP2 SWAP1 SSTORE POP PUSH0 PUSH1 0x40 MLOAD DUP1 PUSH1 0x40 ADD PUSH1 0x40 MSTORE DUP1 DUP4 DUP2 MSTORE PUSH1 0x20 ADD TIMESTAMP DUP2 MSTORE POP SWAP1 POP DUP1 PUSH0 DUP1 CALLER PUSH20 0xFFFFFFFFFFFFFFFFFFFFFFFFFFFFFFFFFFFFFFFF AND PUSH20 0xFFFFFFFFFFFFFFFFFFFFFFFFFFFFFFFFFFFFFFFF AND DUP2 MSTORE PUSH1 0x20 ADD SWAP1 DUP2 MSTORE PUSH1 0x20 ADD PUSH0 KECCAK256 PUSH1 0x4 ADD PUSH0 DUP1 PUSH0 CALLER PUSH20 0xFFFFFFFFFFFFFFFFFFFFFFFFFFFFFFFFFFFFFFFF AND PUSH20 0xFFFFFFFFFFFFFFFFFFFFFFFFFFFFFFFFFFFFFFFF AND DUP2 MSTORE PUSH1 0x20 ADD SWAP1 DUP2 MSTORE PUSH1 0x20 ADD PUSH0 KECCAK256 PUSH1 0x3 ADD SLOAD DUP2 MSTORE PUSH1 0x20 ADD SWAP1 DUP2 MSTORE PUSH1 0x20 ADD PUSH0 KECCAK256 PUSH0 DUP3 ADD MLOAD DUP2 PUSH0 ADD SSTORE PUSH1 0x20 DUP3 ADD MLOAD DUP2 PUSH1 0x1 ADD SSTORE SWAP1 POP POP PUSH0 DUP1 CALLER PUSH20 0xFFFFFFFFFFFFFFFFFFFFFFFFFFFFFFFFFFFFFFFF AND PUSH20 0xFFFFFFFFFFFFFFFFFFFFFFFFFFFFFFFFFFFFFFFF AND DUP2 MSTORE PUSH1 0x20 ADD SWAP1 DUP2 MSTORE PUSH1 0x20 ADD PUSH0 KECCAK256 PUSH1 0x3 ADD PUSH0 DUP2 SLOAD DUP1 SWAP3 SWAP2 SWAP1 PUSH2 0x516 SWAP1 PUSH2 0x7E8 JUMP JUMPDEST SWAP2 SWAP1 POP SSTORE POP DUP3 PUSH20 0xFFFFFFFFFFFFFFFFFFFFFFFFFFFFFFFFFFFFFFFF AND PUSH2 0x8FC DUP4 SWAP1 DUP2 ISZERO MUL SWAP1 PUSH1 0x40 MLOAD PUSH0 PUSH1 0x40 MLOAD DUP1 DUP4 SUB DUP2 DUP6 DUP9 DUP9 CALL SWAP4 POP POP POP POP ISZERO DUP1 ISZERO PUSH2 0x55E JUMPI RETURNDATASIZE PUSH0 DUP1 RETURNDATACOPY RETURNDATASIZE PUSH0 REVERT JUMPDEST POP POP POP POP JUMP JUMPDEST PUSH1 0x40 MLOAD DUP1 PUSH1 0x40 ADD PUSH1 0x40 MSTORE DUP1 PUSH0 DUP2 MSTORE PUSH1 0x20 ADD PUSH0 DUP2 MSTORE POP SWAP1 JUMP JUMPDEST PUSH0 DUP1 REVERT JUMPDEST PUSH0 PUSH20 0xFFFFFFFFFFFFFFFFFFFFFFFFFFFFFFFFFFFFFFFF DUP3 AND SWAP1 POP SWAP2 SWAP1 POP JUMP JUMPDEST PUSH0 PUSH2 0x5A9 DUP3 PUSH2 0x580 JUMP JUMPDEST SWAP1 POP SWAP2 SWAP1 POP JUMP JUMPDEST PUSH2 0x5B9 DUP2 PUSH2 0x59F JUMP JUMPDEST DUP2 EQ PUSH2 0x5C3 JUMPI PUSH0 DUP1 REVERT JUMPDEST POP JUMP JUMPDEST PUSH0 DUP2 CALLDATALOAD SWAP1 POP PUSH2 0x5D4 DUP2 PUSH2 0x5B0 JUMP JUMPDEST SWAP3 SWAP2 POP POP JUMP JUMPDEST PUSH0 PUSH1 0x20 DUP3 DUP5 SUB SLT ISZERO PUSH2 0x5EF JUMPI PUSH2 0x5EE PUSH2 0x57C JUMP JUMPDEST JUMPDEST PUSH0 PUSH2 0x5FC DUP5 DUP3 DUP6 ADD PUSH2 0x5C6 JUMP JUMPDEST SWAP2 POP POP SWAP3 SWAP2 POP POP JUMP JUMPDEST PUSH0 DUP2 SWAP1 POP SWAP2 SWAP1 POP JUMP JUMPDEST PUSH2 0x617 DUP2 PUSH2 0x605 JUMP JUMPDEST DUP3 MSTORE POP POP JUMP JUMPDEST PUSH0 PUSH1 0x60 DUP3 ADD SWAP1 POP PUSH2 0x630 PUSH0 DUP4 ADD DUP7 PUSH2 0x60E JUMP JUMPDEST PUSH2 0x63D PUSH1 0x20 DUP4 ADD DUP6 PUSH2 0x60E JUMP JUMPDEST PUSH2 0x64A PUSH1 0x40 DUP4 ADD DUP5 PUSH2 0x60E JUMP JUMPDEST SWAP5 SWAP4 POP POP POP POP JUMP JUMPDEST PUSH2 0x65B DUP2 PUSH2 0x605 JUMP JUMPDEST DUP2 EQ PUSH2 0x665 JUMPI PUSH0 DUP1 REVERT JUMPDEST POP JUMP JUMPDEST PUSH0 DUP2 CALLDATALOAD SWAP1 POP PUSH2 0x676 DUP2 PUSH2 0x652 JUMP JUMPDEST SWAP3 SWAP2 POP POP JUMP JUMPDEST PUSH0 DUP1 PUSH1 0x40 DUP4 DUP6 SUB SLT ISZERO PUSH2 0x692 JUMPI PUSH2 0x691 PUSH2 0x57C JUMP JUMPDEST JUMPDEST PUSH0 PUSH2 0x69F DUP6 DUP3 DUP7 ADD PUSH2 0x5C6 JUMP JUMPDEST SWAP3 POP POP PUSH1 0x20 PUSH2 0x6B0 DUP6 DUP3 DUP7 ADD PUSH2 0x668 JUMP JUMPDEST SWAP2 POP POP SWAP3 POP SWAP3 SWAP1 POP JUMP JUMPDEST PUSH2 0x6C3 DUP2 PUSH2 0x605 JUMP JUMPDEST DUP3 MSTORE POP POP JUMP JUMPDEST PUSH1 0x40 DUP3 ADD PUSH0 DUP3 ADD MLOAD PUSH2 0x6DD PUSH0 DUP6 ADD DUP3 PUSH2 0x6BA JUMP JUMPDEST POP PUSH1 0x20 DUP3 ADD MLOAD PUSH2 0x6F0 PUSH1 0x20 DUP6 ADD DUP3 PUSH2 0x6BA JUMP JUMPDEST POP POP POP POP JUMP JUMPDEST PUSH0 PUSH1 0x40 DUP3 ADD SWAP1 POP PUSH2 0x709 PUSH0 DUP4 ADD DUP5 PUSH2 0x6C9 JUMP JUMPDEST SWAP3 SWAP2 POP POP JUMP JUMPDEST PUSH0 PUSH2 0x719 DUP3 PUSH2 0x580 JUMP JUMPDEST SWAP1 POP SWAP2 SWAP1 POP JUMP JUMPDEST PUSH2 0x729 DUP2 PUSH2 0x70F JUMP JUMPDEST DUP2 EQ PUSH2 0x733 JUMPI PUSH0 DUP1 REVERT JUMPDEST POP JUMP JUMPDEST PUSH0 DUP2 CALLDATALOAD SWAP1 POP PUSH2 0x744 DUP2 PUSH2 0x720 JUMP JUMPDEST SWAP3 SWAP2 POP POP JUMP JUMPDEST PUSH0 DUP1 PUSH1 0x40 DUP4 DUP6 SUB SLT ISZERO PUSH2 0x760 JUMPI PUSH2 0x75F PUSH2 0x57C JUMP JUMPDEST JUMPDEST PUSH0 PUSH2 0x76D DUP6 DUP3 DUP7 ADD PUSH2 0x736 JUMP JUMPDEST SWAP3 POP POP PUSH1 0x20 PUSH2 0x77E DUP6 DUP3 DUP7 ADD PUSH2 0x668 JUMP JUMPDEST SWAP2 POP POP SWAP3 POP SWAP3 SWAP1 POP JUMP JUMPDEST PUSH32 0x4E487B7100000000000000000000000000000000000000000000000000000000 PUSH0 MSTORE PUSH1 0x11 PUSH1 0x4 MSTORE PUSH1 0x24 PUSH0 REVERT JUMPDEST PUSH0 PUSH2 0x7BF DUP3 PUSH2 0x605 JUMP JUMPDEST SWAP2 POP PUSH2 0x7CA DUP4 PUSH2 0x605 JUMP JUMPDEST SWAP3 POP DUP3 DUP3 ADD SWAP1 POP DUP1 DUP3 GT ISZERO PUSH2 0x7E2 JUMPI PUSH2 0x7E1 PUSH2 0x788 JUMP JUMPDEST JUMPDEST SWAP3 SWAP2 POP POP JUMP JUMPDEST PUSH0 PUSH2 0x7F2 DUP3 PUSH2 0x605 JUMP JUMPDEST SWAP2 POP PUSH32 0xFFFFFFFFFFFFFFFFFFFFFFFFFFFFFFFFFFFFFFFFFFFFFFFFFFFFFFFFFFFFFFFF DUP3 SUB PUSH2 0x824 JUMPI PUSH2 0x823 PUSH2 0x788 JUMP JUMPDEST JUMPDEST PUSH1 0x1 DUP3 ADD SWAP1 POP SWAP2 SWAP1 POP JUMP JUMPDEST PUSH0 PUSH2 0x839 DUP3 PUSH2 0x605 JUMP JUMPDEST SWAP2 POP PUSH2 0x844 DUP4 PUSH2 0x605 JUMP JUMPDEST SWAP3 POP DUP3 DUP3 SUB SWAP1 POP DUP2 DUP2 GT ISZERO PUSH2 0x85C JUMPI PUSH2 0x85B PUSH2 0x788 JUMP JUMPDEST JUMPDEST SWAP3 SWAP2 POP POP JUMP INVALID LOG2 PUSH5 0x6970667358 0x22 SLT KECCAK256 0xF6 0xB9 ISZERO PUSH30 0x94621752177CB262408FE6611AC1FA6C6E68B8952180E174361F45476473 PUSH16 0x6C634300081900330000000000000000 "
				},
				"gasEstimates": {
					"creation": {
						"codeDepositCost": "440000",
						"executionCost": "472",
						"totalCost": "440472"
					},
					"external": {
						"balances(address)": "infinite",
						"depositMoney()": "infinite",
						"getDpositNum(address,uint256)": "infinite",
						"getWithdrawalNum(address,uint256)": "infinite",
						"withdrawMoney(address,uint256)": "infinite"
					}
				},
				"methodIdentifiers": {
					"balances(address)": "27e235e3",
					"depositMoney()": "16c05aa2",
					"getDpositNum(address,uint256)": "aafc89a2",
					"getWithdrawalNum(address,uint256)": "ed48e9bc",
					"withdrawMoney(address,uint256)": "f274c897"
				}
			},
			"storageLayout": {
				"storage": [
					{
						"astId": 28,
						"contract": "contracts/ExampleMappingStruct.sol:MappingStructExample",
						"label": "balances",
						"offset": 0,
						"slot": "0",
						"type": "t_mapping(t_address,t_struct(Balance)23_storage)"
					}
				],
				"types": {
					"t_address": {
						"encoding": "inplace",
						"label": "address",
						"numberOfBytes": "20"
					},
					"t_mapping(t_address,t_struct(Balance)23_storage)": {
						"encoding": "mapping",
						"key": "t_address",
						"label": "mapping(address => struct MappingStructExample.Balance)",
						"numberOfBytes": "32",
						"value": "t_struct(Balance)23_storage"
					},
					"t_mapping(t_uint256,t_struct(Transaction)6_storage)": {
						"encoding": "mapping",
						"key": "t_uint256",
						"label": "mapping(uint256 => struct MappingStructExample.Transaction)",
						"numberOfBytes": "32",
						"value": "t_struct(Transaction)6_storage"
					},
					"t_struct(Balance)23_storage": {
						"encoding": "inplace",
						"label": "struct MappingStructExample.Balance",
						"members": [
							{
								"astId": 8,
								"contract": "contracts/ExampleMappingStruct.sol:MappingStructExample",
								"label": "totalBalance",
								"offset": 0,
								"slot": "0",
								"type": "t_uint256"
							},
							{
								"astId": 10,
								"contract": "contracts/ExampleMappingStruct.sol:MappingStructExample",
								"label": "numDeposits",
								"offset": 0,
								"slot": "1",
								"type": "t_uint256"
							},
							{
								"astId": 15,
								"contract": "contracts/ExampleMappingStruct.sol:MappingStructExample",
								"label": "deposits",
								"offset": 0,
								"slot": "2",
								"type": "t_mapping(t_uint256,t_struct(Transaction)6_storage)"
							},
							{
								"astId": 17,
								"contract": "contracts/ExampleMappingStruct.sol:MappingStructExample",
								"label": "numWithdrawals",
								"offset": 0,
								"slot": "3",
								"type": "t_uint256"
							},
							{
								"astId": 22,
								"contract": "contracts/ExampleMappingStruct.sol:MappingStructExample",
								"label": "withdrawals",
								"offset": 0,
								"slot": "4",
								"type": "t_mapping(t_uint256,t_struct(Transaction)6_storage)"
							}
						],
						"numberOfBytes": "160"
					},
					"t_struct(Transaction)6_storage": {
						"encoding": "inplace",
						"label": "struct MappingStructExample.Transaction",
						"members": [
							{
								"astId": 3,
								"contract": "contracts/ExampleMappingStruct.sol:MappingStructExample",
								"label": "amount",
								"offset": 0,
								"slot": "0",
								"type": "t_uint256"
							},
							{
								"astId": 5,
								"contract": "contracts/ExampleMappingStruct.sol:MappingStructExample",
								"label": "timestamp",
								"offset": 0,
								"slot": "1",
								"type": "t_uint256"
							}
						],
						"numberOfBytes": "64"
					},
					"t_uint256": {
						"encoding": "inplace",
						"label": "uint256",
						"numberOfBytes": "32"
					}
				}
			},
			"userdoc": {
				"kind": "user",
				"methods": {},
				"version": 1
			}
		}
	}
}