{
	"data": {
		"bytecode": {
			"linkReferences": {},
			"object": "6080604052348015600e575f80fd5b50335f806101000a81548173ffffffffffffffffffffffffffffffffffffffff021916908373ffffffffffffffffffffffffffffffffffffffff1602179055506113648061005b5f395ff3fe608060405260043610610089575f3560e01c80633e5beab9116100585780633e5beab91461015c5780638da5cb5b14610198578063b1f8100d146101c2578063be45fd62146101ea578063e0f7671c1461022657610090565b80630633b14a146100945780630bc605ad146100d05780632b8a1c5a1461010c578063310ec4a71461013457610090565b3661009057005b5f80fd5b34801561009f575f80fd5b506100ba60048036038101906100b59190610abe565b610250565b6040516100c79190610b03565b60405180910390f35b3480156100db575f80fd5b506100f660048036038101906100f19190610abe565b61026d565b6040516101039190610b03565b60405180910390f35b348015610117575f80fd5b50610132600480360381019061012d9190610b46565b61028a565b005b34801561013f575f80fd5b5061015a60048036038101906101559190610bb7565b61036f565b005b348015610167575f80fd5b50610182600480360381019061017d9190610abe565b6104f9565b60405161018f9190610c04565b60405180910390f35b3480156101a3575f80fd5b506101ac61050e565b6040516101b99190610c3d565b60405180910390f35b3480156101cd575f80fd5b506101e860048036038101906101e39190610c80565b610531565b005b3480156101f5575f80fd5b50610210600480360381019061020b9190610de7565b6107e5565b60405161021d9190610eb3565b60405180910390f35b348015610231575f80fd5b5061023a610a4e565b6040516102479190610c04565b60405180910390f35b6005602052805f5260405f205f915054906101000a900460ff1681565b6004602052805f5260405f205f915054906101000a900460ff1681565b5f8054906101000a900473ffffffffffffffffffffffffffffffffffffffff1673ffffffffffffffffffffffffffffffffffffffff163373ffffffffffffffffffffffffffffffffffffffff1614610317576040517f08c379a000000000000000000000000000000000000000000000000000000000815260040161030e90610f53565b60405180910390fd5b8060055f8473ffffffffffffffffffffffffffffffffffffffff1673ffffffffffffffffffffffffffffffffffffffff1681526020019081526020015f205f6101000a81548160ff0219169083151502179055505050565b5f8054906101000a900473ffffffffffffffffffffffffffffffffffffffff1673ffffffffffffffffffffffffffffffffffffffff163373ffffffffffffffffffffffffffffffffffffffff16146103fc576040517f08c379a00000000000000000000000000000000000000000000000000000000081526004016103f390610f53565b60405180910390fd5b8060035f8473ffffffffffffffffffffffffffffffffffffffff1673ffffffffffffffffffffffffffffffffffffffff1681526020019081526020015f20819055505f8111156104a057600160045f8473ffffffffffffffffffffffffffffffffffffffff1673ffffffffffffffffffffffffffffffffffffffff1681526020019081526020015f205f6101000a81548160ff0219169083151502179055506104f5565b5f60045f8473ffffffffffffffffffffffffffffffffffffffff1673ffffffffffffffffffffffffffffffffffffffff1681526020019081526020015f205f6101000a81548160ff0219169083151502179055505b5050565b6003602052805f5260405f205f915090505481565b5f8054906101000a900473ffffffffffffffffffffffffffffffffffffffff1681565b60055f3373ffffffffffffffffffffffffffffffffffffffff1673ffffffffffffffffffffffffffffffffffffffff1681526020019081526020015f205f9054906101000a900460ff166105ba576040517f08c379a00000000000000000000000000000000000000000000000000000000081526004016105b190610fe1565b60405180910390fd5b5f151560065f8373ffffffffffffffffffffffffffffffffffffffff1673ffffffffffffffffffffffffffffffffffffffff1681526020019081526020015f205f3373ffffffffffffffffffffffffffffffffffffffff1673ffffffffffffffffffffffffffffffffffffffff1681526020019081526020015f205f9054906101000a900460ff16151514610684576040517f08c379a000000000000000000000000000000000000000000000000000000000815260040161067b90611049565b60405180910390fd5b60015f9054906101000a900473ffffffffffffffffffffffffffffffffffffffff1673ffffffffffffffffffffffffffffffffffffffff168173ffffffffffffffffffffffffffffffffffffffff1614610720578060015f6101000a81548173ffffffffffffffffffffffffffffffffffffffff021916908373ffffffffffffffffffffffffffffffffffffffff1602179055505f6002819055505b60025f81548092919061073290611094565b91905055506003600254106107e25760015f9054906101000a900473ffffffffffffffffffffffffffffffffffffffff165f806101000a81548173ffffffffffffffffffffffffffffffffffffffff021916908373ffffffffffffffffffffffffffffffffffffffff1602179055505f60015f6101000a81548173ffffffffffffffffffffffffffffffffffffffff021916908373ffffffffffffffffffffffffffffffffffffffff1602179055505b50565b60605f8054906101000a900473ffffffffffffffffffffffffffffffffffffffff1673ffffffffffffffffffffffffffffffffffffffff163373ffffffffffffffffffffffffffffffffffffffff16146109965760045f3373ffffffffffffffffffffffffffffffffffffffff1673ffffffffffffffffffffffffffffffffffffffff1681526020019081526020015f205f9054906101000a900460ff166108c2576040517f08c379a00000000000000000000000000000000000000000000000000000000081526004016108b990611171565b60405180910390fd5b8260035f3373ffffffffffffffffffffffffffffffffffffffff1673ffffffffffffffffffffffffffffffffffffffff1681526020019081526020015f20541015610942576040517f08c379a000000000000000000000000000000000000000000000000000000000815260040161093990611225565b60405180910390fd5b8260035f3373ffffffffffffffffffffffffffffffffffffffff1673ffffffffffffffffffffffffffffffffffffffff1681526020019081526020015f205f82825461098e9190611243565b925050819055505b5f808573ffffffffffffffffffffffffffffffffffffffff1685856040516109be91906112b0565b5f6040518083038185875af1925050503d805f81146109f8576040519150601f19603f3d011682016040523d82523d5f602084013e6109fd565b606091505b509150915081610a42576040517f08c379a0000000000000000000000000000000000000000000000000000000008152600401610a3990611310565b60405180910390fd5b80925050509392505050565b600381565b5f604051905090565b5f80fd5b5f80fd5b5f73ffffffffffffffffffffffffffffffffffffffff82169050919050565b5f610a8d82610a64565b9050919050565b610a9d81610a83565b8114610aa7575f80fd5b50565b5f81359050610ab881610a94565b92915050565b5f60208284031215610ad357610ad2610a5c565b5b5f610ae084828501610aaa565b91505092915050565b5f8115159050919050565b610afd81610ae9565b82525050565b5f602082019050610b165f830184610af4565b92915050565b610b2581610ae9565b8114610b2f575f80fd5b50565b5f81359050610b4081610b1c565b92915050565b5f8060408385031215610b5c57610b5b610a5c565b5b5f610b6985828601610aaa565b9250506020610b7a85828601610b32565b9150509250929050565b5f819050919050565b610b9681610b84565b8114610ba0575f80fd5b50565b5f81359050610bb181610b8d565b92915050565b5f8060408385031215610bcd57610bcc610a5c565b5b5f610bda85828601610aaa565b9250506020610beb85828601610ba3565b9150509250929050565b610bfe81610b84565b82525050565b5f602082019050610c175f830184610bf5565b92915050565b5f610c2782610a64565b9050919050565b610c3781610c1d565b82525050565b5f602082019050610c505f830184610c2e565b92915050565b610c5f81610c1d565b8114610c69575f80fd5b50565b5f81359050610c7a81610c56565b92915050565b5f60208284031215610c9557610c94610a5c565b5b5f610ca284828501610c6c565b91505092915050565b5f80fd5b5f80fd5b5f601f19601f8301169050919050565b7f4e487b71000000000000000000000000000000000000000000000000000000005f52604160045260245ffd5b610cf982610cb3565b810181811067ffffffffffffffff82111715610d1857610d17610cc3565b5b80604052505050565b5f610d2a610a53565b9050610d368282610cf0565b919050565b5f67ffffffffffffffff821115610d5557610d54610cc3565b5b610d5e82610cb3565b9050602081019050919050565b828183375f83830152505050565b5f610d8b610d8684610d3b565b610d21565b905082815260208101848484011115610da757610da6610caf565b5b610db2848285610d6b565b509392505050565b5f82601f830112610dce57610dcd610cab565b5b8135610dde848260208601610d79565b91505092915050565b5f805f60608486031215610dfe57610dfd610a5c565b5b5f610e0b86828701610c6c565b9350506020610e1c86828701610ba3565b925050604084013567ffffffffffffffff811115610e3d57610e3c610a60565b5b610e4986828701610dba565b9150509250925092565b5f81519050919050565b5f82825260208201905092915050565b8281835e5f83830152505050565b5f610e8582610e53565b610e8f8185610e5d565b9350610e9f818560208601610e6d565b610ea881610cb3565b840191505092915050565b5f6020820190508181035f830152610ecb8184610e7b565b905092915050565b5f82825260208201905092915050565b7f596f7520617265206e6f7420746865206f776e6572212c2041626f7274696e675f8201527f2121000000000000000000000000000000000000000000000000000000000000602082015250565b5f610f3d602283610ed3565b9150610f4882610ee3565b604082019050919050565b5f6020820190508181035f830152610f6a81610f31565b9050919050565b7f596f7520617265206e6f74206120677561726469616e206f66207468697320775f8201527f616c6c6574212c20476f20617761792020212100000000000000000000000000602082015250565b5f610fcb603383610ed3565b9150610fd682610f71565b604082019050919050565b5f6020820190508181035f830152610ff881610fbf565b9050919050565b7f596f7520616c726561647920766f7465642c2041626f7274696e6721210000005f82015250565b5f611033601d83610ed3565b915061103e82610fff565b602082019050919050565b5f6020820190508181035f83015261106081611027565b9050919050565b7f4e487b71000000000000000000000000000000000000000000000000000000005f52601160045260245ffd5b5f61109e82610b84565b91507fffffffffffffffffffffffffffffffffffffffffffffffffffffffffffffffff82036110d0576110cf611067565b5b600182019050919050565b7f596f752061747265206e6f7420616c6c6f77656420746f2073656e6420616e795f8201527f7468696e6720746f207468697320736d61727420636f6e74726163742c20416260208201527f6f7274696e672121000000000000000000000000000000000000000000000000604082015250565b5f61115b604883610ed3565b9150611166826110db565b606082019050919050565b5f6020820190508181035f8301526111888161114f565b9050919050565b7f596f752061726520747279696e6720746f2073656e64206d6f7265207468616e5f8201527f20796f752061726520616c6c6f77656420746f21202c2041626f7274696e672160208201527f2100000000000000000000000000000000000000000000000000000000000000604082015250565b5f61120f604183610ed3565b915061121a8261118f565b606082019050919050565b5f6020820190508181035f83015261123c81611203565b9050919050565b5f61124d82610b84565b915061125883610b84565b92508282039050818111156112705761126f611067565b5b92915050565b5f81905092915050565b5f61128a82610e53565b6112948185611276565b93506112a4818560208601610e6d565b80840191505092915050565b5f6112bb8284611280565b915081905092915050565b7f4e6f2073756363657373212c2041626f7274696e6721210000000000000000005f82015250565b5f6112fa601783610ed3565b9150611305826112c6565b602082019050919050565b5f6020820190508181035f830152611327816112ee565b905091905056fea2646970667358221220f02b6343a365cc8669d83a3dca10c3245daa965eccad24ef510e1a2cf3ccfef264736f6c63430008190033",
			"opcodes": "PUSH1 0x80 PUSH1 0x40 MSTORE CALLVALUE DUP1 ISZERO PUSH1 0xE JUMPI PUSH0 DUP1 REVERT JUMPDEST POP CALLER PUSH0 DUP1 PUSH2 0x100 EXP DUP2 SLOAD DUP2 PUSH20 0xFFFFFFFFFFFFFFFFFFFFFFFFFFFFFFFFFFFFFFFF MUL NOT AND SWAP1 DUP4 PUSH20 0xFFFFFFFFFFFFFFFFFFFFFFFFFFFFFFFFFFFFFFFF AND MUL OR SWAP1 SSTORE POP PUSH2 0x1364 DUP1 PUSH2 0x5B PUSH0 CODECOPY PUSH0 RETURN INVALID PUSH1 0x80 PUSH1 0x40 MSTORE PUSH1 0x4 CALLDATASIZE LT PUSH2 0x89 JUMPI PUSH0 CALLDATALOAD PUSH1 0xE0 SHR DUP1 PUSH4 0x3E5BEAB9 GT PUSH2 0x58 JUMPI DUP1 PUSH4 0x3E5BEAB9 EQ PUSH2 0x15C JUMPI DUP1 PUSH4 0x8DA5CB5B EQ PUSH2 0x198 JUMPI DUP1 PUSH4 0xB1F8100D EQ PUSH2 0x1C2 JUMPI DUP1 PUSH4 0xBE45FD62 EQ PUSH2 0x1EA JUMPI DUP1 PUSH4 0xE0F7671C EQ PUSH2 0x226 JUMPI PUSH2 0x90 JUMP JUMPDEST DUP1 PUSH4 0x633B14A EQ PUSH2 0x94 JUMPI DUP1 PUSH4 0xBC605AD EQ PUSH2 0xD0 JUMPI DUP1 PUSH4 0x2B8A1C5A EQ PUSH2 0x10C JUMPI DUP1 PUSH4 0x310EC4A7 EQ PUSH2 0x134 JUMPI PUSH2 0x90 JUMP JUMPDEST CALLDATASIZE PUSH2 0x90 JUMPI STOP JUMPDEST PUSH0 DUP1 REVERT JUMPDEST CALLVALUE DUP1 ISZERO PUSH2 0x9F JUMPI PUSH0 DUP1 REVERT JUMPDEST POP PUSH2 0xBA PUSH1 0x4 DUP1 CALLDATASIZE SUB DUP2 ADD SWAP1 PUSH2 0xB5 SWAP2 SWAP1 PUSH2 0xABE JUMP JUMPDEST PUSH2 0x250 JUMP JUMPDEST PUSH1 0x40 MLOAD PUSH2 0xC7 SWAP2 SWAP1 PUSH2 0xB03 JUMP JUMPDEST PUSH1 0x40 MLOAD DUP1 SWAP2 SUB SWAP1 RETURN JUMPDEST CALLVALUE DUP1 ISZERO PUSH2 0xDB JUMPI PUSH0 DUP1 REVERT JUMPDEST POP PUSH2 0xF6 PUSH1 0x4 DUP1 CALLDATASIZE SUB DUP2 ADD SWAP1 PUSH2 0xF1 SWAP2 SWAP1 PUSH2 0xABE JUMP JUMPDEST PUSH2 0x26D JUMP JUMPDEST PUSH1 0x40 MLOAD PUSH2 0x103 SWAP2 SWAP1 PUSH2 0xB03 JUMP JUMPDEST PUSH1 0x40 MLOAD DUP1 SWAP2 SUB SWAP1 RETURN JUMPDEST CALLVALUE DUP1 ISZERO PUSH2 0x117 JUMPI PUSH0 DUP1 REVERT JUMPDEST POP PUSH2 0x132 PUSH1 0x4 DUP1 CALLDATASIZE SUB DUP2 ADD SWAP1 PUSH2 0x12D SWAP2 SWAP1 PUSH2 0xB46 JUMP JUMPDEST PUSH2 0x28A JUMP JUMPDEST STOP JUMPDEST CALLVALUE DUP1 ISZERO PUSH2 0x13F JUMPI PUSH0 DUP1 REVERT JUMPDEST POP PUSH2 0x15A PUSH1 0x4 DUP1 CALLDATASIZE SUB DUP2 ADD SWAP1 PUSH2 0x155 SWAP2 SWAP1 PUSH2 0xBB7 JUMP JUMPDEST PUSH2 0x36F JUMP JUMPDEST STOP JUMPDEST CALLVALUE DUP1 ISZERO PUSH2 0x167 JUMPI PUSH0 DUP1 REVERT JUMPDEST POP PUSH2 0x182 PUSH1 0x4 DUP1 CALLDATASIZE SUB DUP2 ADD SWAP1 PUSH2 0x17D SWAP2 SWAP1 PUSH2 0xABE JUMP JUMPDEST PUSH2 0x4F9 JUMP JUMPDEST PUSH1 0x40 MLOAD PUSH2 0x18F SWAP2 SWAP1 PUSH2 0xC04 JUMP JUMPDEST PUSH1 0x40 MLOAD DUP1 SWAP2 SUB SWAP1 RETURN JUMPDEST CALLVALUE DUP1 ISZERO PUSH2 0x1A3 JUMPI PUSH0 DUP1 REVERT JUMPDEST POP PUSH2 0x1AC PUSH2 0x50E JUMP JUMPDEST PUSH1 0x40 MLOAD PUSH2 0x1B9 SWAP2 SWAP1 PUSH2 0xC3D JUMP JUMPDEST PUSH1 0x40 MLOAD DUP1 SWAP2 SUB SWAP1 RETURN JUMPDEST CALLVALUE DUP1 ISZERO PUSH2 0x1CD JUMPI PUSH0 DUP1 REVERT JUMPDEST POP PUSH2 0x1E8 PUSH1 0x4 DUP1 CALLDATASIZE SUB DUP2 ADD SWAP1 PUSH2 0x1E3 SWAP2 SWAP1 PUSH2 0xC80 JUMP JUMPDEST PUSH2 0x531 JUMP JUMPDEST STOP JUMPDEST CALLVALUE DUP1 ISZERO PUSH2 0x1F5 JUMPI PUSH0 DUP1 REVERT JUMPDEST POP PUSH2 0x210 PUSH1 0x4 DUP1 CALLDATASIZE SUB DUP2 ADD SWAP1 PUSH2 0x20B SWAP2 SWAP1 PUSH2 0xDE7 JUMP JUMPDEST PUSH2 0x7E5 JUMP JUMPDEST PUSH1 0x40 MLOAD PUSH2 0x21D SWAP2 SWAP1 PUSH2 0xEB3 JUMP JUMPDEST PUSH1 0x40 MLOAD DUP1 SWAP2 SUB SWAP1 RETURN JUMPDEST CALLVALUE DUP1 ISZERO PUSH2 0x231 JUMPI PUSH0 DUP1 REVERT JUMPDEST POP PUSH2 0x23A PUSH2 0xA4E JUMP JUMPDEST PUSH1 0x40 MLOAD PUSH2 0x247 SWAP2 SWAP1 PUSH2 0xC04 JUMP JUMPDEST PUSH1 0x40 MLOAD DUP1 SWAP2 SUB SWAP1 RETURN JUMPDEST PUSH1 0x5 PUSH1 0x20 MSTORE DUP1 PUSH0 MSTORE PUSH1 0x40 PUSH0 KECCAK256 PUSH0 SWAP2 POP SLOAD SWAP1 PUSH2 0x100 EXP SWAP1 DIV PUSH1 0xFF AND DUP2 JUMP JUMPDEST PUSH1 0x4 PUSH1 0x20 MSTORE DUP1 PUSH0 MSTORE PUSH1 0x40 PUSH0 KECCAK256 PUSH0 SWAP2 POP SLOAD SWAP1 PUSH2 0x100 EXP SWAP1 DIV PUSH1 0xFF AND DUP2 JUMP JUMPDEST PUSH0 DUP1 SLOAD SWAP1 PUSH2 0x100 EXP SWAP1 DIV PUSH20 0xFFFFFFFFFFFFFFFFFFFFFFFFFFFFFFFFFFFFFFFF AND PUSH20 0xFFFFFFFFFFFFFFFFFFFFFFFFFFFFFFFFFFFFFFFF AND CALLER PUSH20 0xFFFFFFFFFFFFFFFFFFFFFFFFFFFFFFFFFFFFFFFF AND EQ PUSH2 0x317 JUMPI PUSH1 0x40 MLOAD PUSH32 0x8C379A000000000000000000000000000000000000000000000000000000000 DUP2 MSTORE PUSH1 0x4 ADD PUSH2 0x30E SWAP1 PUSH2 0xF53 JUMP JUMPDEST PUSH1 0x40 MLOAD DUP1 SWAP2 SUB SWAP1 REVERT JUMPDEST DUP1 PUSH1 0x5 PUSH0 DUP5 PUSH20 0xFFFFFFFFFFFFFFFFFFFFFFFFFFFFFFFFFFFFFFFF AND PUSH20 0xFFFFFFFFFFFFFFFFFFFFFFFFFFFFFFFFFFFFFFFF AND DUP2 MSTORE PUSH1 0x20 ADD SWAP1 DUP2 MSTORE PUSH1 0x20 ADD PUSH0 KECCAK256 PUSH0 PUSH2 0x100 EXP DUP2 SLOAD DUP2 PUSH1 0xFF MUL NOT AND SWAP1 DUP4 ISZERO ISZERO MUL OR SWAP1 SSTORE POP POP POP JUMP JUMPDEST PUSH0 DUP1 SLOAD SWAP1 PUSH2 0x100 EXP SWAP1 DIV PUSH20 0xFFFFFFFFFFFFFFFFFFFFFFFFFFFFFFFFFFFFFFFF AND PUSH20 0xFFFFFFFFFFFFFFFFFFFFFFFFFFFFFFFFFFFFFFFF AND CALLER PUSH20 0xFFFFFFFFFFFFFFFFFFFFFFFFFFFFFFFFFFFFFFFF AND EQ PUSH2 0x3FC JUMPI PUSH1 0x40 MLOAD PUSH32 0x8C379A000000000000000000000000000000000000000000000000000000000 DUP2 MSTORE PUSH1 0x4 ADD PUSH2 0x3F3 SWAP1 PUSH2 0xF53 JUMP JUMPDEST PUSH1 0x40 MLOAD DUP1 SWAP2 SUB SWAP1 REVERT JUMPDEST DUP1 PUSH1 0x3 PUSH0 DUP5 PUSH20 0xFFFFFFFFFFFFFFFFFFFFFFFFFFFFFFFFFFFFFFFF AND PUSH20 0xFFFFFFFFFFFFFFFFFFFFFFFFFFFFFFFFFFFFFFFF AND DUP2 MSTORE PUSH1 0x20 ADD SWAP1 DUP2 MSTORE PUSH1 0x20 ADD PUSH0 KECCAK256 DUP2 SWAP1 SSTORE POP PUSH0 DUP2 GT ISZERO PUSH2 0x4A0 JUMPI PUSH1 0x1 PUSH1 0x4 PUSH0 DUP5 PUSH20 0xFFFFFFFFFFFFFFFFFFFFFFFFFFFFFFFFFFFFFFFF AND PUSH20 0xFFFFFFFFFFFFFFFFFFFFFFFFFFFFFFFFFFFFFFFF AND DUP2 MSTORE PUSH1 0x20 ADD SWAP1 DUP2 MSTORE PUSH1 0x20 ADD PUSH0 KECCAK256 PUSH0 PUSH2 0x100 EXP DUP2 SLOAD DUP2 PUSH1 0xFF MUL NOT AND SWAP1 DUP4 ISZERO ISZERO MUL OR SWAP1 SSTORE POP PUSH2 0x4F5 JUMP JUMPDEST PUSH0 PUSH1 0x4 PUSH0 DUP5 PUSH20 0xFFFFFFFFFFFFFFFFFFFFFFFFFFFFFFFFFFFFFFFF AND PUSH20 0xFFFFFFFFFFFFFFFFFFFFFFFFFFFFFFFFFFFFFFFF AND DUP2 MSTORE PUSH1 0x20 ADD SWAP1 DUP2 MSTORE PUSH1 0x20 ADD PUSH0 KECCAK256 PUSH0 PUSH2 0x100 EXP DUP2 SLOAD DUP2 PUSH1 0xFF MUL NOT AND SWAP1 DUP4 ISZERO ISZERO MUL OR SWAP1 SSTORE POP JUMPDEST POP POP JUMP JUMPDEST PUSH1 0x3 PUSH1 0x20 MSTORE DUP1 PUSH0 MSTORE PUSH1 0x40 PUSH0 KECCAK256 PUSH0 SWAP2 POP SWAP1 POP SLOAD DUP2 JUMP JUMPDEST PUSH0 DUP1 SLOAD SWAP1 PUSH2 0x100 EXP SWAP1 DIV PUSH20 0xFFFFFFFFFFFFFFFFFFFFFFFFFFFFFFFFFFFFFFFF AND DUP2 JUMP JUMPDEST PUSH1 0x5 PUSH0 CALLER PUSH20 0xFFFFFFFFFFFFFFFFFFFFFFFFFFFFFFFFFFFFFFFF AND PUSH20 0xFFFFFFFFFFFFFFFFFFFFFFFFFFFFFFFFFFFFFFFF AND DUP2 MSTORE PUSH1 0x20 ADD SWAP1 DUP2 MSTORE PUSH1 0x20 ADD PUSH0 KECCAK256 PUSH0 SWAP1 SLOAD SWAP1 PUSH2 0x100 EXP SWAP1 DIV PUSH1 0xFF AND PUSH2 0x5BA JUMPI PUSH1 0x40 MLOAD PUSH32 0x8C379A000000000000000000000000000000000000000000000000000000000 DUP2 MSTORE PUSH1 0x4 ADD PUSH2 0x5B1 SWAP1 PUSH2 0xFE1 JUMP JUMPDEST PUSH1 0x40 MLOAD DUP1 SWAP2 SUB SWAP1 REVERT JUMPDEST PUSH0 ISZERO ISZERO PUSH1 0x6 PUSH0 DUP4 PUSH20 0xFFFFFFFFFFFFFFFFFFFFFFFFFFFFFFFFFFFFFFFF AND PUSH20 0xFFFFFFFFFFFFFFFFFFFFFFFFFFFFFFFFFFFFFFFF AND DUP2 MSTORE PUSH1 0x20 ADD SWAP1 DUP2 MSTORE PUSH1 0x20 ADD PUSH0 KECCAK256 PUSH0 CALLER PUSH20 0xFFFFFFFFFFFFFFFFFFFFFFFFFFFFFFFFFFFFFFFF AND PUSH20 0xFFFFFFFFFFFFFFFFFFFFFFFFFFFFFFFFFFFFFFFF AND DUP2 MSTORE PUSH1 0x20 ADD SWAP1 DUP2 MSTORE PUSH1 0x20 ADD PUSH0 KECCAK256 PUSH0 SWAP1 SLOAD SWAP1 PUSH2 0x100 EXP SWAP1 DIV PUSH1 0xFF AND ISZERO ISZERO EQ PUSH2 0x684 JUMPI PUSH1 0x40 MLOAD PUSH32 0x8C379A000000000000000000000000000000000000000000000000000000000 DUP2 MSTORE PUSH1 0x4 ADD PUSH2 0x67B SWAP1 PUSH2 0x1049 JUMP JUMPDEST PUSH1 0x40 MLOAD DUP1 SWAP2 SUB SWAP1 REVERT JUMPDEST PUSH1 0x1 PUSH0 SWAP1 SLOAD SWAP1 PUSH2 0x100 EXP SWAP1 DIV PUSH20 0xFFFFFFFFFFFFFFFFFFFFFFFFFFFFFFFFFFFFFFFF AND PUSH20 0xFFFFFFFFFFFFFFFFFFFFFFFFFFFFFFFFFFFFFFFF AND DUP2 PUSH20 0xFFFFFFFFFFFFFFFFFFFFFFFFFFFFFFFFFFFFFFFF AND EQ PUSH2 0x720 JUMPI DUP1 PUSH1 0x1 PUSH0 PUSH2 0x100 EXP DUP2 SLOAD DUP2 PUSH20 0xFFFFFFFFFFFFFFFFFFFFFFFFFFFFFFFFFFFFFFFF MUL NOT AND SWAP1 DUP4 PUSH20 0xFFFFFFFFFFFFFFFFFFFFFFFFFFFFFFFFFFFFFFFF AND MUL OR SWAP1 SSTORE POP PUSH0 PUSH1 0x2 DUP2 SWAP1 SSTORE POP JUMPDEST PUSH1 0x2 PUSH0 DUP2 SLOAD DUP1 SWAP3 SWAP2 SWAP1 PUSH2 0x732 SWAP1 PUSH2 0x1094 JUMP JUMPDEST SWAP2 SWAP1 POP SSTORE POP PUSH1 0x3 PUSH1 0x2 SLOAD LT PUSH2 0x7E2 JUMPI PUSH1 0x1 PUSH0 SWAP1 SLOAD SWAP1 PUSH2 0x100 EXP SWAP1 DIV PUSH20 0xFFFFFFFFFFFFFFFFFFFFFFFFFFFFFFFFFFFFFFFF AND PUSH0 DUP1 PUSH2 0x100 EXP DUP2 SLOAD DUP2 PUSH20 0xFFFFFFFFFFFFFFFFFFFFFFFFFFFFFFFFFFFFFFFF MUL NOT AND SWAP1 DUP4 PUSH20 0xFFFFFFFFFFFFFFFFFFFFFFFFFFFFFFFFFFFFFFFF AND MUL OR SWAP1 SSTORE POP PUSH0 PUSH1 0x1 PUSH0 PUSH2 0x100 EXP DUP2 SLOAD DUP2 PUSH20 0xFFFFFFFFFFFFFFFFFFFFFFFFFFFFFFFFFFFFFFFF MUL NOT AND SWAP1 DUP4 PUSH20 0xFFFFFFFFFFFFFFFFFFFFFFFFFFFFFFFFFFFFFFFF AND MUL OR SWAP1 SSTORE POP JUMPDEST POP JUMP JUMPDEST PUSH1 0x60 PUSH0 DUP1 SLOAD SWAP1 PUSH2 0x100 EXP SWAP1 DIV PUSH20 0xFFFFFFFFFFFFFFFFFFFFFFFFFFFFFFFFFFFFFFFF AND PUSH20 0xFFFFFFFFFFFFFFFFFFFFFFFFFFFFFFFFFFFFFFFF AND CALLER PUSH20 0xFFFFFFFFFFFFFFFFFFFFFFFFFFFFFFFFFFFFFFFF AND EQ PUSH2 0x996 JUMPI PUSH1 0x4 PUSH0 CALLER PUSH20 0xFFFFFFFFFFFFFFFFFFFFFFFFFFFFFFFFFFFFFFFF AND PUSH20 0xFFFFFFFFFFFFFFFFFFFFFFFFFFFFFFFFFFFFFFFF AND DUP2 MSTORE PUSH1 0x20 ADD SWAP1 DUP2 MSTORE PUSH1 0x20 ADD PUSH0 KECCAK256 PUSH0 SWAP1 SLOAD SWAP1 PUSH2 0x100 EXP SWAP1 DIV PUSH1 0xFF AND PUSH2 0x8C2 JUMPI PUSH1 0x40 MLOAD PUSH32 0x8C379A000000000000000000000000000000000000000000000000000000000 DUP2 MSTORE PUSH1 0x4 ADD PUSH2 0x8B9 SWAP1 PUSH2 0x1171 JUMP JUMPDEST PUSH1 0x40 MLOAD DUP1 SWAP2 SUB SWAP1 REVERT JUMPDEST DUP3 PUSH1 0x3 PUSH0 CALLER PUSH20 0xFFFFFFFFFFFFFFFFFFFFFFFFFFFFFFFFFFFFFFFF AND PUSH20 0xFFFFFFFFFFFFFFFFFFFFFFFFFFFFFFFFFFFFFFFF AND DUP2 MSTORE PUSH1 0x20 ADD SWAP1 DUP2 MSTORE PUSH1 0x20 ADD PUSH0 KECCAK256 SLOAD LT ISZERO PUSH2 0x942 JUMPI PUSH1 0x40 MLOAD PUSH32 0x8C379A000000000000000000000000000000000000000000000000000000000 DUP2 MSTORE PUSH1 0x4 ADD PUSH2 0x939 SWAP1 PUSH2 0x1225 JUMP JUMPDEST PUSH1 0x40 MLOAD DUP1 SWAP2 SUB SWAP1 REVERT JUMPDEST DUP3 PUSH1 0x3 PUSH0 CALLER PUSH20 0xFFFFFFFFFFFFFFFFFFFFFFFFFFFFFFFFFFFFFFFF AND PUSH20 0xFFFFFFFFFFFFFFFFFFFFFFFFFFFFFFFFFFFFFFFF AND DUP2 MSTORE PUSH1 0x20 ADD SWAP1 DUP2 MSTORE PUSH1 0x20 ADD PUSH0 KECCAK256 PUSH0 DUP3 DUP3 SLOAD PUSH2 0x98E SWAP2 SWAP1 PUSH2 0x1243 JUMP JUMPDEST SWAP3 POP POP DUP2 SWAP1 SSTORE POP JUMPDEST PUSH0 DUP1 DUP6 PUSH20 0xFFFFFFFFFFFFFFFFFFFFFFFFFFFFFFFFFFFFFFFF AND DUP6 DUP6 PUSH1 0x40 MLOAD PUSH2 0x9BE SWAP2 SWAP1 PUSH2 0x12B0 JUMP JUMPDEST PUSH0 PUSH1 0x40 MLOAD DUP1 DUP4 SUB DUP2 DUP6 DUP8 GAS CALL SWAP3 POP POP POP RETURNDATASIZE DUP1 PUSH0 DUP2 EQ PUSH2 0x9F8 JUMPI PUSH1 0x40 MLOAD SWAP2 POP PUSH1 0x1F NOT PUSH1 0x3F RETURNDATASIZE ADD AND DUP3 ADD PUSH1 0x40 MSTORE RETURNDATASIZE DUP3 MSTORE RETURNDATASIZE PUSH0 PUSH1 0x20 DUP5 ADD RETURNDATACOPY PUSH2 0x9FD JUMP JUMPDEST PUSH1 0x60 SWAP2 POP JUMPDEST POP SWAP2 POP SWAP2 POP DUP2 PUSH2 0xA42 JUMPI PUSH1 0x40 MLOAD PUSH32 0x8C379A000000000000000000000000000000000000000000000000000000000 DUP2 MSTORE PUSH1 0x4 ADD PUSH2 0xA39 SWAP1 PUSH2 0x1310 JUMP JUMPDEST PUSH1 0x40 MLOAD DUP1 SWAP2 SUB SWAP1 REVERT JUMPDEST DUP1 SWAP3 POP POP POP SWAP4 SWAP3 POP POP POP JUMP JUMPDEST PUSH1 0x3 DUP2 JUMP JUMPDEST PUSH0 PUSH1 0x40 MLOAD SWAP1 POP SWAP1 JUMP JUMPDEST PUSH0 DUP1 REVERT JUMPDEST PUSH0 DUP1 REVERT JUMPDEST PUSH0 PUSH20 0xFFFFFFFFFFFFFFFFFFFFFFFFFFFFFFFFFFFFFFFF DUP3 AND SWAP1 POP SWAP2 SWAP1 POP JUMP JUMPDEST PUSH0 PUSH2 0xA8D DUP3 PUSH2 0xA64 JUMP JUMPDEST SWAP1 POP SWAP2 SWAP1 POP JUMP JUMPDEST PUSH2 0xA9D DUP2 PUSH2 0xA83 JUMP JUMPDEST DUP2 EQ PUSH2 0xAA7 JUMPI PUSH0 DUP1 REVERT JUMPDEST POP JUMP JUMPDEST PUSH0 DUP2 CALLDATALOAD SWAP1 POP PUSH2 0xAB8 DUP2 PUSH2 0xA94 JUMP JUMPDEST SWAP3 SWAP2 POP POP JUMP JUMPDEST PUSH0 PUSH1 0x20 DUP3 DUP5 SUB SLT ISZERO PUSH2 0xAD3 JUMPI PUSH2 0xAD2 PUSH2 0xA5C JUMP JUMPDEST JUMPDEST PUSH0 PUSH2 0xAE0 DUP5 DUP3 DUP6 ADD PUSH2 0xAAA JUMP JUMPDEST SWAP2 POP POP SWAP3 SWAP2 POP POP JUMP JUMPDEST PUSH0 DUP2 ISZERO ISZERO SWAP1 POP SWAP2 SWAP1 POP JUMP JUMPDEST PUSH2 0xAFD DUP2 PUSH2 0xAE9 JUMP JUMPDEST DUP3 MSTORE POP POP JUMP JUMPDEST PUSH0 PUSH1 0x20 DUP3 ADD SWAP1 POP PUSH2 0xB16 PUSH0 DUP4 ADD DUP5 PUSH2 0xAF4 JUMP JUMPDEST SWAP3 SWAP2 POP POP JUMP JUMPDEST PUSH2 0xB25 DUP2 PUSH2 0xAE9 JUMP JUMPDEST DUP2 EQ PUSH2 0xB2F JUMPI PUSH0 DUP1 REVERT JUMPDEST POP JUMP JUMPDEST PUSH0 DUP2 CALLDATALOAD SWAP1 POP PUSH2 0xB40 DUP2 PUSH2 0xB1C JUMP JUMPDEST SWAP3 SWAP2 POP POP JUMP JUMPDEST PUSH0 DUP1 PUSH1 0x40 DUP4 DUP6 SUB SLT ISZERO PUSH2 0xB5C JUMPI PUSH2 0xB5B PUSH2 0xA5C JUMP JUMPDEST JUMPDEST PUSH0 PUSH2 0xB69 DUP6 DUP3 DUP7 ADD PUSH2 0xAAA JUMP JUMPDEST SWAP3 POP POP PUSH1 0x20 PUSH2 0xB7A DUP6 DUP3 DUP7 ADD PUSH2 0xB32 JUMP JUMPDEST SWAP2 POP POP SWAP3 POP SWAP3 SWAP1 POP JUMP JUMPDEST PUSH0 DUP2 SWAP1 POP SWAP2 SWAP1 POP JUMP JUMPDEST PUSH2 0xB96 DUP2 PUSH2 0xB84 JUMP JUMPDEST DUP2 EQ PUSH2 0xBA0 JUMPI PUSH0 DUP1 REVERT JUMPDEST POP JUMP JUMPDEST PUSH0 DUP2 CALLDATALOAD SWAP1 POP PUSH2 0xBB1 DUP2 PUSH2 0xB8D JUMP JUMPDEST SWAP3 SWAP2 POP POP JUMP JUMPDEST PUSH0 DUP1 PUSH1 0x40 DUP4 DUP6 SUB SLT ISZERO PUSH2 0xBCD JUMPI PUSH2 0xBCC PUSH2 0xA5C JUMP JUMPDEST JUMPDEST PUSH0 PUSH2 0xBDA DUP6 DUP3 DUP7 ADD PUSH2 0xAAA JUMP JUMPDEST SWAP3 POP POP PUSH1 0x20 PUSH2 0xBEB DUP6 DUP3 DUP7 ADD PUSH2 0xBA3 JUMP JUMPDEST SWAP2 POP POP SWAP3 POP SWAP3 SWAP1 POP JUMP JUMPDEST PUSH2 0xBFE DUP2 PUSH2 0xB84 JUMP JUMPDEST DUP3 MSTORE POP POP JUMP JUMPDEST PUSH0 PUSH1 0x20 DUP3 ADD SWAP1 POP PUSH2 0xC17 PUSH0 DUP4 ADD DUP5 PUSH2 0xBF5 JUMP JUMPDEST SWAP3 SWAP2 POP POP JUMP JUMPDEST PUSH0 PUSH2 0xC27 DUP3 PUSH2 0xA64 JUMP JUMPDEST SWAP1 POP SWAP2 SWAP1 POP JUMP JUMPDEST PUSH2 0xC37 DUP2 PUSH2 0xC1D JUMP JUMPDEST DUP3 MSTORE POP POP JUMP JUMPDEST PUSH0 PUSH1 0x20 DUP3 ADD SWAP1 POP PUSH2 0xC50 PUSH0 DUP4 ADD DUP5 PUSH2 0xC2E JUMP JUMPDEST SWAP3 SWAP2 POP POP JUMP JUMPDEST PUSH2 0xC5F DUP2 PUSH2 0xC1D JUMP JUMPDEST DUP2 EQ PUSH2 0xC69 JUMPI PUSH0 DUP1 REVERT JUMPDEST POP JUMP JUMPDEST PUSH0 DUP2 CALLDATALOAD SWAP1 POP PUSH2 0xC7A DUP2 PUSH2 0xC56 JUMP JUMPDEST SWAP3 SWAP2 POP POP JUMP JUMPDEST PUSH0 PUSH1 0x20 DUP3 DUP5 SUB SLT ISZERO PUSH2 0xC95 JUMPI PUSH2 0xC94 PUSH2 0xA5C JUMP JUMPDEST JUMPDEST PUSH0 PUSH2 0xCA2 DUP5 DUP3 DUP6 ADD PUSH2 0xC6C JUMP JUMPDEST SWAP2 POP POP SWAP3 SWAP2 POP POP JUMP JUMPDEST PUSH0 DUP1 REVERT JUMPDEST PUSH0 DUP1 REVERT JUMPDEST PUSH0 PUSH1 0x1F NOT PUSH1 0x1F DUP4 ADD AND SWAP1 POP SWAP2 SWAP1 POP JUMP JUMPDEST PUSH32 0x4E487B7100000000000000000000000000000000000000000000000000000000 PUSH0 MSTORE PUSH1 0x41 PUSH1 0x4 MSTORE PUSH1 0x24 PUSH0 REVERT JUMPDEST PUSH2 0xCF9 DUP3 PUSH2 0xCB3 JUMP JUMPDEST DUP2 ADD DUP2 DUP2 LT PUSH8 0xFFFFFFFFFFFFFFFF DUP3 GT OR ISZERO PUSH2 0xD18 JUMPI PUSH2 0xD17 PUSH2 0xCC3 JUMP JUMPDEST JUMPDEST DUP1 PUSH1 0x40 MSTORE POP POP POP JUMP JUMPDEST PUSH0 PUSH2 0xD2A PUSH2 0xA53 JUMP JUMPDEST SWAP1 POP PUSH2 0xD36 DUP3 DUP3 PUSH2 0xCF0 JUMP JUMPDEST SWAP2 SWAP1 POP JUMP JUMPDEST PUSH0 PUSH8 0xFFFFFFFFFFFFFFFF DUP3 GT ISZERO PUSH2 0xD55 JUMPI PUSH2 0xD54 PUSH2 0xCC3 JUMP JUMPDEST JUMPDEST PUSH2 0xD5E DUP3 PUSH2 0xCB3 JUMP JUMPDEST SWAP1 POP PUSH1 0x20 DUP2 ADD SWAP1 POP SWAP2 SWAP1 POP JUMP JUMPDEST DUP3 DUP2 DUP4 CALLDATACOPY PUSH0 DUP4 DUP4 ADD MSTORE POP POP POP JUMP JUMPDEST PUSH0 PUSH2 0xD8B PUSH2 0xD86 DUP5 PUSH2 0xD3B JUMP JUMPDEST PUSH2 0xD21 JUMP JUMPDEST SWAP1 POP DUP3 DUP2 MSTORE PUSH1 0x20 DUP2 ADD DUP5 DUP5 DUP5 ADD GT ISZERO PUSH2 0xDA7 JUMPI PUSH2 0xDA6 PUSH2 0xCAF JUMP JUMPDEST JUMPDEST PUSH2 0xDB2 DUP5 DUP3 DUP6 PUSH2 0xD6B JUMP JUMPDEST POP SWAP4 SWAP3 POP POP POP JUMP JUMPDEST PUSH0 DUP3 PUSH1 0x1F DUP4 ADD SLT PUSH2 0xDCE JUMPI PUSH2 0xDCD PUSH2 0xCAB JUMP JUMPDEST JUMPDEST DUP2 CALLDATALOAD PUSH2 0xDDE DUP5 DUP3 PUSH1 0x20 DUP7 ADD PUSH2 0xD79 JUMP JUMPDEST SWAP2 POP POP SWAP3 SWAP2 POP POP JUMP JUMPDEST PUSH0 DUP1 PUSH0 PUSH1 0x60 DUP5 DUP7 SUB SLT ISZERO PUSH2 0xDFE JUMPI PUSH2 0xDFD PUSH2 0xA5C JUMP JUMPDEST JUMPDEST PUSH0 PUSH2 0xE0B DUP7 DUP3 DUP8 ADD PUSH2 0xC6C JUMP JUMPDEST SWAP4 POP POP PUSH1 0x20 PUSH2 0xE1C DUP7 DUP3 DUP8 ADD PUSH2 0xBA3 JUMP JUMPDEST SWAP3 POP POP PUSH1 0x40 DUP5 ADD CALLDATALOAD PUSH8 0xFFFFFFFFFFFFFFFF DUP2 GT ISZERO PUSH2 0xE3D JUMPI PUSH2 0xE3C PUSH2 0xA60 JUMP JUMPDEST JUMPDEST PUSH2 0xE49 DUP7 DUP3 DUP8 ADD PUSH2 0xDBA JUMP JUMPDEST SWAP2 POP POP SWAP3 POP SWAP3 POP SWAP3 JUMP JUMPDEST PUSH0 DUP2 MLOAD SWAP1 POP SWAP2 SWAP1 POP JUMP JUMPDEST PUSH0 DUP3 DUP3 MSTORE PUSH1 0x20 DUP3 ADD SWAP1 POP SWAP3 SWAP2 POP POP JUMP JUMPDEST DUP3 DUP2 DUP4 MCOPY PUSH0 DUP4 DUP4 ADD MSTORE POP POP POP JUMP JUMPDEST PUSH0 PUSH2 0xE85 DUP3 PUSH2 0xE53 JUMP JUMPDEST PUSH2 0xE8F DUP2 DUP6 PUSH2 0xE5D JUMP JUMPDEST SWAP4 POP PUSH2 0xE9F DUP2 DUP6 PUSH1 0x20 DUP7 ADD PUSH2 0xE6D JUMP JUMPDEST PUSH2 0xEA8 DUP2 PUSH2 0xCB3 JUMP JUMPDEST DUP5 ADD SWAP2 POP POP SWAP3 SWAP2 POP POP JUMP JUMPDEST PUSH0 PUSH1 0x20 DUP3 ADD SWAP1 POP DUP2 DUP2 SUB PUSH0 DUP4 ADD MSTORE PUSH2 0xECB DUP2 DUP5 PUSH2 0xE7B JUMP JUMPDEST SWAP1 POP SWAP3 SWAP2 POP POP JUMP JUMPDEST PUSH0 DUP3 DUP3 MSTORE PUSH1 0x20 DUP3 ADD SWAP1 POP SWAP3 SWAP2 POP POP JUMP JUMPDEST PUSH32 0x596F7520617265206E6F7420746865206F776E6572212C2041626F7274696E67 PUSH0 DUP3 ADD MSTORE PUSH32 0x2121000000000000000000000000000000000000000000000000000000000000 PUSH1 0x20 DUP3 ADD MSTORE POP JUMP JUMPDEST PUSH0 PUSH2 0xF3D PUSH1 0x22 DUP4 PUSH2 0xED3 JUMP JUMPDEST SWAP2 POP PUSH2 0xF48 DUP3 PUSH2 0xEE3 JUMP JUMPDEST PUSH1 0x40 DUP3 ADD SWAP1 POP SWAP2 SWAP1 POP JUMP JUMPDEST PUSH0 PUSH1 0x20 DUP3 ADD SWAP1 POP DUP2 DUP2 SUB PUSH0 DUP4 ADD MSTORE PUSH2 0xF6A DUP2 PUSH2 0xF31 JUMP JUMPDEST SWAP1 POP SWAP2 SWAP1 POP JUMP JUMPDEST PUSH32 0x596F7520617265206E6F74206120677561726469616E206F6620746869732077 PUSH0 DUP3 ADD MSTORE PUSH32 0x616C6C6574212C20476F20617761792020212100000000000000000000000000 PUSH1 0x20 DUP3 ADD MSTORE POP JUMP JUMPDEST PUSH0 PUSH2 0xFCB PUSH1 0x33 DUP4 PUSH2 0xED3 JUMP JUMPDEST SWAP2 POP PUSH2 0xFD6 DUP3 PUSH2 0xF71 JUMP JUMPDEST PUSH1 0x40 DUP3 ADD SWAP1 POP SWAP2 SWAP1 POP JUMP JUMPDEST PUSH0 PUSH1 0x20 DUP3 ADD SWAP1 POP DUP2 DUP2 SUB PUSH0 DUP4 ADD MSTORE PUSH2 0xFF8 DUP2 PUSH2 0xFBF JUMP JUMPDEST SWAP1 POP SWAP2 SWAP1 POP JUMP JUMPDEST PUSH32 0x596F7520616C726561647920766F7465642C2041626F7274696E672121000000 PUSH0 DUP3 ADD MSTORE POP JUMP JUMPDEST PUSH0 PUSH2 0x1033 PUSH1 0x1D DUP4 PUSH2 0xED3 JUMP JUMPDEST SWAP2 POP PUSH2 0x103E DUP3 PUSH2 0xFFF JUMP JUMPDEST PUSH1 0x20 DUP3 ADD SWAP1 POP SWAP2 SWAP1 POP JUMP JUMPDEST PUSH0 PUSH1 0x20 DUP3 ADD SWAP1 POP DUP2 DUP2 SUB PUSH0 DUP4 ADD MSTORE PUSH2 0x1060 DUP2 PUSH2 0x1027 JUMP JUMPDEST SWAP1 POP SWAP2 SWAP1 POP JUMP JUMPDEST PUSH32 0x4E487B7100000000000000000000000000000000000000000000000000000000 PUSH0 MSTORE PUSH1 0x11 PUSH1 0x4 MSTORE PUSH1 0x24 PUSH0 REVERT JUMPDEST PUSH0 PUSH2 0x109E DUP3 PUSH2 0xB84 JUMP JUMPDEST SWAP2 POP PUSH32 0xFFFFFFFFFFFFFFFFFFFFFFFFFFFFFFFFFFFFFFFFFFFFFFFFFFFFFFFFFFFFFFFF DUP3 SUB PUSH2 0x10D0 JUMPI PUSH2 0x10CF PUSH2 0x1067 JUMP JUMPDEST JUMPDEST PUSH1 0x1 DUP3 ADD SWAP1 POP SWAP2 SWAP1 POP JUMP JUMPDEST PUSH32 0x596F752061747265206E6F7420616C6C6F77656420746F2073656E6420616E79 PUSH0 DUP3 ADD MSTORE PUSH32 0x7468696E6720746F207468697320736D61727420636F6E74726163742C204162 PUSH1 0x20 DUP3 ADD MSTORE PUSH32 0x6F7274696E672121000000000000000000000000000000000000000000000000 PUSH1 0x40 DUP3 ADD MSTORE POP JUMP JUMPDEST PUSH0 PUSH2 0x115B PUSH1 0x48 DUP4 PUSH2 0xED3 JUMP JUMPDEST SWAP2 POP PUSH2 0x1166 DUP3 PUSH2 0x10DB JUMP JUMPDEST PUSH1 0x60 DUP3 ADD SWAP1 POP SWAP2 SWAP1 POP JUMP JUMPDEST PUSH0 PUSH1 0x20 DUP3 ADD SWAP1 POP DUP2 DUP2 SUB PUSH0 DUP4 ADD MSTORE PUSH2 0x1188 DUP2 PUSH2 0x114F JUMP JUMPDEST SWAP1 POP SWAP2 SWAP1 POP JUMP JUMPDEST PUSH32 0x596F752061726520747279696E6720746F2073656E64206D6F7265207468616E PUSH0 DUP3 ADD MSTORE PUSH32 0x20796F752061726520616C6C6F77656420746F21202C2041626F7274696E6721 PUSH1 0x20 DUP3 ADD MSTORE PUSH32 0x2100000000000000000000000000000000000000000000000000000000000000 PUSH1 0x40 DUP3 ADD MSTORE POP JUMP JUMPDEST PUSH0 PUSH2 0x120F PUSH1 0x41 DUP4 PUSH2 0xED3 JUMP JUMPDEST SWAP2 POP PUSH2 0x121A DUP3 PUSH2 0x118F JUMP JUMPDEST PUSH1 0x60 DUP3 ADD SWAP1 POP SWAP2 SWAP1 POP JUMP JUMPDEST PUSH0 PUSH1 0x20 DUP3 ADD SWAP1 POP DUP2 DUP2 SUB PUSH0 DUP4 ADD MSTORE PUSH2 0x123C DUP2 PUSH2 0x1203 JUMP JUMPDEST SWAP1 POP SWAP2 SWAP1 POP JUMP JUMPDEST PUSH0 PUSH2 0x124D DUP3 PUSH2 0xB84 JUMP JUMPDEST SWAP2 POP PUSH2 0x1258 DUP4 PUSH2 0xB84 JUMP JUMPDEST SWAP3 POP DUP3 DUP3 SUB SWAP1 POP DUP2 DUP2 GT ISZERO PUSH2 0x1270 JUMPI PUSH2 0x126F PUSH2 0x1067 JUMP JUMPDEST JUMPDEST SWAP3 SWAP2 POP POP JUMP JUMPDEST PUSH0 DUP2 SWAP1 POP SWAP3 SWAP2 POP POP JUMP JUMPDEST PUSH0 PUSH2 0x128A DUP3 PUSH2 0xE53 JUMP JUMPDEST PUSH2 0x1294 DUP2 DUP6 PUSH2 0x1276 JUMP JUMPDEST SWAP4 POP PUSH2 0x12A4 DUP2 DUP6 PUSH1 0x20 DUP7 ADD PUSH2 0xE6D JUMP JUMPDEST DUP1 DUP5 ADD SWAP2 POP POP SWAP3 SWAP2 POP POP JUMP JUMPDEST PUSH0 PUSH2 0x12BB DUP3 DUP5 PUSH2 0x1280 JUMP JUMPDEST SWAP2 POP DUP2 SWAP1 POP SWAP3 SWAP2 POP POP JUMP JUMPDEST PUSH32 0x4E6F2073756363657373212C2041626F7274696E672121000000000000000000 PUSH0 DUP3 ADD MSTORE POP JUMP JUMPDEST PUSH0 PUSH2 0x12FA PUSH1 0x17 DUP4 PUSH2 0xED3 JUMP JUMPDEST SWAP2 POP PUSH2 0x1305 DUP3 PUSH2 0x12C6 JUMP JUMPDEST PUSH1 0x20 DUP3 ADD SWAP1 POP SWAP2 SWAP1 POP JUMP JUMPDEST PUSH0 PUSH1 0x20 DUP3 ADD SWAP1 POP DUP2 DUP2 SUB PUSH0 DUP4 ADD MSTORE PUSH2 0x1327 DUP2 PUSH2 0x12EE JUMP JUMPDEST SWAP1 POP SWAP2 SWAP1 POP JUMP INVALID LOG2 PUSH5 0x6970667358 0x22 SLT KECCAK256 CREATE 0x2B PUSH4 0x43A365CC DUP7 PUSH10 0xD83A3DCA10C3245DAA96 MCOPY 0xCC 0xAD 0x24 0xEF MLOAD 0xE BYTE 0x2C RETURN 0xCC INVALID CALLCODE PUSH5 0x736F6C6343 STOP ADDMOD NOT STOP CALLER "
		},
		"gasEstimates": {
			"creation": {
				"codeDepositCost": "992800",
				"executionCost": "25297",
				"totalCost": "1018097"
			},
			"external": {
				"allowance(address)": "2802",
				"confirmationFromGuradiansForReset()": "413",
				"guardians(address)": "2834",
				"isAllowedToSend(address)": "2856",
				"owner()": "2527",
				"proposeNewOwner(address)": "63002",
				"setAllowance(address,uint256)": "49445",
				"setGuardian(address,bool)": "27191",
				"transfer(address,uint256,bytes)": "infinite"
			}
		},
		"methodIdentifiers": {
			"allowance(address)": "3e5beab9",
			"confirmationFromGuradiansForReset()": "e0f7671c",
			"guardians(address)": "0633b14a",
			"isAllowedToSend(address)": "0bc605ad",
			"owner()": "8da5cb5b",
			"proposeNewOwner(address)": "b1f8100d",
			"setAllowance(address,uint256)": "310ec4a7",
			"setGuardian(address,bool)": "2b8a1c5a",
			"transfer(address,uint256,bytes)": "be45fd62"
		}
	},
	"abi": [
		{
			"inputs": [],
			"stateMutability": "nonpayable",
			"type": "constructor"
		},
		{
			"inputs": [
				{
					"internalType": "address",
					"name": "",
					"type": "address"
				}
			],
			"name": "allowance",
			"outputs": [
				{
					"internalType": "uint256",
					"name": "",
					"type": "uint256"
				}
			],
			"stateMutability": "view",
			"type": "function"
		},
		{
			"inputs": [],
			"name": "confirmationFromGuradiansForReset",
			"outputs": [
				{
					"internalType": "uint256",
					"name": "",
					"type": "uint256"
				}
			],
			"stateMutability": "view",
			"type": "function"
		},
		{
			"inputs": [
				{
					"internalType": "address",
					"name": "",
					"type": "address"
				}
			],
			"name": "guardians",
			"outputs": [
				{
					"internalType": "bool",
					"name": "",
					"type": "bool"
				}
			],
			"stateMutability": "view",
			"type": "function"
		},
		{
			"inputs": [
				{
					"internalType": "address",
					"name": "",
					"type": "address"
				}
			],
			"name": "isAllowedToSend",
			"outputs": [
				{
					"internalType": "bool",
					"name": "",
					"type": "bool"
				}
			],
			"stateMutability": "view",
			"type": "function"
		},
		{
			"inputs": [],
			"name": "owner",
			"outputs": [
				{
					"internalType": "address payable",
					"name": "",
					"type": "address"
				}
			],
			"stateMutability": "view",
			"type": "function"
		},
		{
			"inputs": [
				{
					"internalType": "address payable",
					"name": "_newOwner",
					"type": "address"
				}
			],
			"name": "proposeNewOwner",
			"outputs": [],
			"stateMutability": "nonpayable",
			"type": "function"
		},
		{
			"inputs": [
				{
					"internalType": "address",
					"name": "_for",
					"type": "address"
				},
				{
					"internalType": "uint256",
					"name": "_amount",
					"type": "uint256"
				}
			],
			"name": "setAllowance",
			"outputs": [],
			"stateMutability": "nonpayable",
			"type": "function"
		},
		{
			"inputs": [
				{
					"internalType": "address",
					"name": "_guardian",
					"type": "address"
				},
				{
					"internalType": "bool",
					"name": "_isGuardian",
					"type": "bool"
				}
			],
			"name": "setGuardian",
			"outputs": [],
			"stateMutability": "nonpayable",
			"type": "function"
		},
		{
			"inputs": [
				{
					"internalType": "address payable",
					"name": "_to",
					"type": "address"
				},
				{
					"internalType": "uint256",
					"name": "_amount",
					"type": "uint256"
				},
				{
					"internalType": "bytes",
					"name": "_payload",
					"type": "bytes"
				}
			],
			"name": "transfer",
			"outputs": [
				{
					"internalType": "bytes",
					"name": "",
					"type": "bytes"
				}
			],
			"stateMutability": "nonpayable",
			"type": "function"
		},
		{
			"stateMutability": "payable",
			"type": "receive"
		}
	]
}