{
	"data": {
		"bytecode": {
			"linkReferences": {},
			"object": "6080604052348015600e575f80fd5b506101138061001c5f395ff3fe6080604052348015600e575f80fd5b50600436106026575f3560e01c806339c117a414602a575b5f80fd5b60306032565b005b6040517fb94e62a100000000000000000000000000000000000000000000000000000000815260040160629060c1565b60405180910390fd5b5f82825260208201905092915050565b7f4e6f7420416c6c6f776564204572726f720000000000000000000000000000005f82015250565b5f60ad601183606b565b915060b682607b565b602082019050919050565b5f6020820190508181035f83015260d68160a3565b905091905056fea2646970667358221220a30cbec61328f3cdf3aa14e1994cc3474c8f8f89835f03cca7e4bf84b5665eb664736f6c63430008190033",
			"opcodes": "PUSH1 0x80 PUSH1 0x40 MSTORE CALLVALUE DUP1 ISZERO PUSH1 0xE JUMPI PUSH0 DUP1 REVERT JUMPDEST POP PUSH2 0x113 DUP1 PUSH2 0x1C PUSH0 CODECOPY PUSH0 RETURN INVALID PUSH1 0x80 PUSH1 0x40 MSTORE CALLVALUE DUP1 ISZERO PUSH1 0xE JUMPI PUSH0 DUP1 REVERT JUMPDEST POP PUSH1 0x4 CALLDATASIZE LT PUSH1 0x26 JUMPI PUSH0 CALLDATALOAD PUSH1 0xE0 SHR DUP1 PUSH4 0x39C117A4 EQ PUSH1 0x2A JUMPI JUMPDEST PUSH0 DUP1 REVERT JUMPDEST PUSH1 0x30 PUSH1 0x32 JUMP JUMPDEST STOP JUMPDEST PUSH1 0x40 MLOAD PUSH32 0xB94E62A100000000000000000000000000000000000000000000000000000000 DUP2 MSTORE PUSH1 0x4 ADD PUSH1 0x62 SWAP1 PUSH1 0xC1 JUMP JUMPDEST PUSH1 0x40 MLOAD DUP1 SWAP2 SUB SWAP1 REVERT JUMPDEST PUSH0 DUP3 DUP3 MSTORE PUSH1 0x20 DUP3 ADD SWAP1 POP SWAP3 SWAP2 POP POP JUMP JUMPDEST PUSH32 0x4E6F7420416C6C6F776564204572726F72000000000000000000000000000000 PUSH0 DUP3 ADD MSTORE POP JUMP JUMPDEST PUSH0 PUSH1 0xAD PUSH1 0x11 DUP4 PUSH1 0x6B JUMP JUMPDEST SWAP2 POP PUSH1 0xB6 DUP3 PUSH1 0x7B JUMP JUMPDEST PUSH1 0x20 DUP3 ADD SWAP1 POP SWAP2 SWAP1 POP JUMP JUMPDEST PUSH0 PUSH1 0x20 DUP3 ADD SWAP1 POP DUP2 DUP2 SUB PUSH0 DUP4 ADD MSTORE PUSH1 0xD6 DUP2 PUSH1 0xA3 JUMP JUMPDEST SWAP1 POP SWAP2 SWAP1 POP JUMP INVALID LOG2 PUSH5 0x6970667358 0x22 SLT KECCAK256 LOG3 0xC 0xBE 0xC6 SGT 0x28 RETURN 0xCD RETURN 0xAA EQ 0xE1 SWAP10 0x4C 0xC3 SELFBALANCE 0x4C DUP16 DUP16 DUP10 DUP4 PUSH0 SUB 0xCC 0xA7 0xE4 0xBF DUP5 0xB5 PUSH7 0x5EB664736F6C63 NUMBER STOP ADDMOD NOT STOP CALLER "
		},
		"gasEstimates": {
			"creation": {
				"codeDepositCost": "55000",
				"executionCost": "103",
				"totalCost": "55103"
			},
			"external": {
				"aFunction()": "406"
			}
		},
		"methodIdentifiers": {
			"aFunction()": "39c117a4"
		}
	},
	"abi": [
		{
			"inputs": [
				{
					"internalType": "string",
					"name": "",
					"type": "string"
				}
			],
			"name": "NotAllowedError",
			"type": "error"
		},
		{
			"inputs": [],
			"name": "aFunction",
			"outputs": [],
			"stateMutability": "pure",
			"type": "function"
		}
	]
}